:020000040800F2
:1000000000000220151E00085D1C00085F1C00088F
:10001000611C0008631C0008651C0008000000004B
:10002000000000000000000000000000671C000845
:10003000691C0008000000006B1C00086D1C000813
:10004000651E0008651E0008651E0008651E000884
:10005000651E0008651E0008651E0008651E000874
:10006000651E0008651E0008651E0008651E000864
:10007000651E0008651E0008651E0008651E000854
:10008000651E0008651E0008651E000800000000CF
:10009000000000000000000000000000651E0008D5
:1000A000651E0008651E0008651E0008651E000824
:1000B000751C0008651E0008651E0008651E000806
:1000C000651E0008651E0008651E0008651E000804
:1000D000651E0008651E0008851C00080000000061
:1000E000651E0008651E0008651E0008000000006F
:1000F000000000000000000000000000651E000875
:1001000000000000651E0008651E0008651E00084E
:1001100000000000000000000000000000000000DF
:10012000651E0008651E0008651E0008651E0008A3
:10013000651E000800000000000000000000000034
:10014000000000000000000000000000651E000824
:10015000651E0008651E0008651E0008651E000873
:10016000651E0008651E0008000000000000000079
:10017000000000000000000000000000000000007F
:1001800000000000651E00080000000000000000E4
:08019000651E0008651E000851
:1001980010B5054C237833B9044B13B10448AFF3B9
:1001A80000800123237010BDD4000020000000004F
:1001B800C01E000808B5034B1BB103490348AFF341
:1001C800008008BD00000000D8000020C01E000804
:1001D80053B94AB9002908BF00281CBF4FF0FF31A6
:1001E8004FF0FF3000F072B9ADF1080C6DE904CEA4
:1001F80000F006F8DDF804E0DDE9022304B07047FA
:100208002DE9F047089E04468846002B4BD18A42C8
:10021800154667D9B2FA82F24AB1C2F1200701FA4B
:1002280002F320FA07F7954047EA030894404FEA9B
:10023800154E230CB8FBFEF71FFA85FC0EFB17883A
:1002480043EA084307FB0CF1994209D9EB1807F177
:10025800FF3080F01B81994240F21881023F2B4405
:100268005B1AA4B2B3FBFEF00EFB103344EA03445E
:1002780000FB0CFCA44509D92C1900F1FF3380F0D0
:100288000781A44540F2048102382C4440EA074023
:10029800A4EB0C0400271EB1D4400023C6E9004398
:1002A8003946BDE8F0878B4209D9002E00F0EB8073
:1002B8000027C6E9000138463946BDE8F087B3FA99
:1002C80083F7002F47D18B4202D3824200F2FA8093
:1002D800841A61EB030301209846002EE0D0C6E99A
:1002E8000048DDE702B9FFDEB2FA82F2002A40F0E8
:1002F8008F80491B4FEA154E1FFA85F80127B1FB7D
:10030800FEFC230C0EFB1C1143EA014308FB0CF115
:10031800994207D9EB180CF1FF3002D2994200F24A
:10032800CD808446591AA3B2B1FBFEF00EFB10141F
:1003380043EA044408FB00F8A04507D92C1900F14A
:10034800FF3302D2A04500F2B6801846A4EB080499
:1003580040EA0C409FE7C7F1200CBB4022FA0CFE94
:100368004EEA030E01FA07F420FA0CF521FA0CF311
:100378004FEA1E482543B3FBF8F92C0C08FB193348
:100388001FFA8EFA44EA034309FB0AF49C4202FA74
:1003980007F200FA07F10BD91EEB030309F1FF304E
:1003A80080F087809C4240F28480A9F1020973445E
:1003B8001B1BADB2B3FBF8F008FB103345EA03444E
:1003C80000FB0AFAA24508D91EEB040400F1FF332A
:1003D8006BD2A24569D90238744440EA0940A0FBAF
:1003E8000289A4EB0A044C45C2464B4654D351D06B
:1003F800002E69D0B1EB0A0564EB030404FA0CFC87
:10040800FD40FC404CEA0505C6E90054002747E7D3
:10041800C2F1200320FA03F7954001FA02F021FA0D
:1004280003F34FEA154E3843010CB3FBFEF71FFAEE
:1004380085F80EFB173341EA034107FB08F38B42AB
:1004480004FA02F407D9691807F1FF3C2FD28B424E
:100458002DD9023F2944CB1A81B2B3FBFEF00EFB23
:10046800103341EA034100FB08F38B4207D96918AE
:1004780000F1FF3C17D28B4215D902382944C91A1A
:1004880040EA07473BE73746304609E70746E7E6CD
:100498001846FBE64145ABD2B8EB020A69EB0E02FF
:1004A80001381346A4E76046E9E7184695E767462A
:1004B800D1E781467CE702382C4447E7ACF1020CCF
:1004C8002B442FE7384608E73746E9E6704700BF70
:1004D800034613F8012B002AFBD1181A013870477C
:1004E80010B504460E4B18784FF47A73B3FBF0F34B
:1004F8000C4A1068B0FBF3F000F096F868B90F2CBE
:1005080001D901200AE0002221464FF0FF3000F017
:1005180049F8034B5C60002000E0012010BD00BFDB
:1005280000000020D000002008B50B4B1A6842F4E8
:1005380000721A601A6842F480621A601A6842F4FB
:1005480080721A60032000F01BF80020FFF7C8FF34
:1005580001F064FB002008BD003C0240034A11681A
:10056800034B1B780B441360704700BFF00000205A
:1005780000000020014B1868704700BFF000002001
:10058800074AD36823F4E0631B041B0C000200F441
:10059800E060184340F0BF6040F40030D06070471E
:1005A80000ED00E030B4174BDB68C3F30223C3F15E
:1005B8000704042C28BF04241D1D062D18D9033B4D
:1005C8004FF0FF3505FA04F421EA0401994005FAD1
:1005D80003F322EA0303194300280BDB0901C9B21C
:1005E80000F1604000F5614080F8001330BC7047AE
:1005F8000023E5E700F00F000901C9B2024B1954C6
:10060800F4E700BF00ED00E014ED00E0002807DB90
:1006180000F01F02400901239340024A42F82030AB
:10062800704700BF00E100E00138B0F1807F0AD2D6
:10063800064B5860064AF02182F823100020986083
:1006480007221A6070470120704700BF10E000E0E1
:1006580000ED00E090F83530DBB2022B03D08023A8
:10066800436501207047052380F835300268136818
:1006780023F00103136000207047000000230F2BB4
:1006880000F2C580F0B583B039E0042200E0002212
:10069800AA403A4302345E4D45F824205D4A146866
:1006A800F24302EA04054F6817F4803F01D046EA96
:1006B8000405584C2560646802EA04054F6817F47D
:1006C800003F01D046EA0405524C6560A46802EA7E
:1006D80004054F6817F4801F01D046EA04054D4C05
:1006E800A560E46822404D6815F4001F01D046EA71
:1006F8000402484CE26001330F2B00F2868001228D
:100708009A400C6804EA0206B242F4D14C68651EAD
:10071800012D03D9112C01D0122C12D185685F004C
:100728000324BC4025EA0405CC68BC402C43846003
:10073800456825EA02054C68C4F300129A402A432A
:100748004260C4685F000322BA40D24314408D68F7
:10075800BD402543C5604C68022C01D0122C13D132
:10076800DD08083550F825E003F007044FEA840C4B
:100778000F2404FA0CF42EEA040E0C6904FA0CF4A3
:1007880044EA0E0440F82540046822404C6804F00E
:100798000304BC40224302604A6812F0805FAAD07A
:1007A800002201921C4A546C44F480445464526CF4
:1007B80002F480420192019A9C08A51C144A52F83E
:1007C800257003F0030295000F22AA4027EA0207CA
:1007D800124A90423FF45BAF02F5806290420ED01D
:1007E80002F5806290420CD002F5806290420AD0F5
:1007F80002F5806290423FF448AF072248E70122A1
:1008080046E7022244E7032242E703B0F0BD7047FF
:1008180000380140003C014000380240000002401E
:1008280012B909048161704781617047436931EAEF
:10083800030301D08161704709048161704700009A
:10084800002800F0E48170B582B00446036813F014
:10085800010F3BD0A74B9B6803F00C03042B2CD053
:10086800A44B9B6803F00C03082B21D06368B3F5F5
:10087800803F4FD0B3F5A02F52D09E4B1A6822F478
:1008880080321A601A6822F480221A606368002B8A
:1008980050D0FFF76FFE0546964B1B6813F4003FD8
:1008A80014D1FFF767FE401B6428F5D90320B3E194
:1008B800904B5B6813F4800FD8D08E4B1B6813F4F1
:1008C800003F03D06368002B00F0A381236813F076
:1008D800020F55D0874B9B6813F00C0F3ED0854B09
:1008E8009B6803F00C03082B33D0E368002B68D017
:1008F800814B01221A60FFF73DFE05467D4B1B68C0
:1009080013F0020F54D1FFF735FE401B0228F5D92A
:10091800032081E1774A136843F480331360B5E715
:10092800744B1A6842F480221A601A6842F48032C2
:100938001A60ABE7FFF71EFE05466E4B1B6813F403
:10094800003FC3D0FFF716FE401B6428F5D90320EB
:1009580062E1684B5B6813F4800FC6D1654B1B6876
:1009680013F0020F04D0E368012B01D0012053E1FA
:10097800604A136823F0F803216943EAC10313604E
:10098800236813F0080F40D0636963B35B4B0122FF
:100998001A60FFF7EFFD0546564B5B6F13F0020F29
:1009A80033D1FFF7E7FD401B0228F5D9032033E1D7
:1009B800504A136823F0F803216943EAC10313601E
:1009C800DEE74D4B00221A60FFF7D4FD0546494B80
:1009D8001B6813F0020FD3D0FFF7CCFD401B022891
:1009E800F5D9032018E1454B00221A60FFF7C2FD34
:1009F8000546404B5B6F13F0020F06D0FFF7BAFDB8
:100A0800401B0228F5D9032006E1236813F0040FE0
:100A180079D0384B1B6C13F0805F33D100230193DE
:100A2800344B1A6C42F080521A641B6C03F08053EA
:100A38000193019B0125324B1B6813F4807F23D05F
:100A4800A368012B34D0052B38D02A4B1A6F22F01B
:100A580001021A671A6F22F004021A67A368002BB2
:100A680036D0FFF787FD0646224B1B6F13F0020FA7
:100A780048D1FFF77FFD801B41F288339842F3D9B4
:100A88000320C9E00025D6E71D4A136843F48073A4
:100A98001360FFF76FFD0646194B1B6813F4807F40
:100AA800CED1FFF767FD801B0228F5D90320B3E0FC
:100AB800104A136F43F001031367CFE70D4B1A6F0A
:100AC80042F004021A671A6F42F001021A67C5E77A
:100AD800FFF750FD0646074B1B6F13F0020F11D0AE
:100AE800FFF748FD801B41F288339842F3D9032071
:100AF80092E000BF0038024000004742800E4742A3
:100B080000700040EDB9A369002B00F08480454ACD
:100B1800926802F00C02082A51D0022B17D0424BDF
:100B280000221A60FFF726FD04463E4B1B6813F0AF
:100B3800007F42D0FFF71EFD001B0228F5D90320D5
:100B48006AE0384A136C23F080531364DBE7364BB2
:100B580000221A60FFF70EFD0546324B1B6813F0A2
:100B6800007F06D0FFF706FD401B0228F5D90320B9
:100B780052E0E369226A1343626A43EA8213A26A73
:100B88005208013A43EA0243E26A43EA0263254A09
:100B98005360254B01221A60FFF7ECFC0446214BF9
:100BA8001B6813F0007F06D1FFF7E4FC001B022846
:100BB800F5D9032030E000202EE000202CE0012BA6
:100BC8002CD0184B9B6803F48001E269914201D054
:100BD800012021E003F03F02216A8A4201D001206E
:100BE8001AE0616A47F6C0721A408A4201D00120B1
:100BF80012E003F44032A16A8A4201D001200BE0DE
:100C080003F07063E26A93420AD0012004E00120F5
:100C18007047012000E0002002B070BD0120FBE712
:100C28000020F9E70038024060004742324B9B68D9
:100C380003F00C03042B5CD0082B01D02F4870471D
:100C48002DE9F04B2C4B5A6802F03F025B6813F415
:100C5800800F2BD0284B5B68C3F388131E460027F0
:100C68005C010025E41A65EB0705A90141EA9461D6
:100C7800A001001B61EB0501CB0043EA5073C400DF
:100C8800A01943EB07014B0243EAD0534402204624
:100C980019460023FFF79CFA174B5B68C3F301431F
:100CA80001335B00B0FBF3F0BDE8F08B124B5B68DF
:100CB800C3F388131E4600275C010025E41A65EB80
:100CC8000705A90141EA9461A001001B61EB050138
:100CD800CB0043EA5073C400A01943EB07018B0211
:100CE80043EA90538402204619460023FFF770FA1E
:100CF800D2E70348704700BF003802400024F400E0
:100D080000127A00002800F09E8070B50446504B0F
:100D18001B6803F00F038B4209D2CBB24C4A137005
:100D2800136803F00F038B4201D0012070BD2368C4
:100D380013F0020F17D013F0040F04D0454A93683C
:100D480043F4E0539360236813F0080F04D0414A3A
:100D5800936843F4604393603E4A936823F0F0033A
:100D6800A068034393600D46236813F0010F32D047
:100D78006368012B21D09A1E012A25D9354A1268A9
:100D880012F0020F61D033498A6822F0030213433C
:100D98008B60FFF7EFFB06462E4B9B6803F00C03B6
:100DA8006268B3EB820F16D0FFF7E4FB801B41F2B9
:100DB80088339842F0D90320B8E7264A126812F41B
:100DC800003FE0D10120B1E7224A126812F0007F0B
:100DD800D9D10120AAE71E4B1B6803F00F03AB42D1
:100DE80009D9EAB21A4B1A701B6803F00F03AB4219
:100DF80001D001209AE7236813F0040F06D0154AA2
:100E0800936823F4E053E1680B439360236813F07D
:100E1800080F07D00F4A936823F46043216943EA17
:100E2800C1039360FFF702FF0A4B9B68C3F30313E8
:100E3800094AD35CD840094B1860094B1868FFF77A
:100E48004FFB002072E70120704701206EE700BFCA
:100E5800003C024000380240D81E0008D0000020A4
:100E680004000020014B1868704700BFD000002024
:100E780008B5FFF7F7FF044B9B68C3F38223034AC7
:100E8800D35CD84008BD00BF00380240E81E000807
:100E980008B5FFF7E7FF044B9B68C3F34233034AE7
:100EA800D35CD84008BD00BF00380240E81E0008E7
:100EB80010B4036A046A24F001040462846924F00B
:100EC800F00444EA021223F00A030B43826103622E
:100ED8005DF8044B704710B4036A23F010030362F3
:100EE8008469036A24F4704444EA023223F0A003BC
:100EF80043EA0113826103625DF8044B704783681B
:100F080023F07003194341F007018160704770476F
:100F1800704770477047704710B5044603681A69F0
:100F280012F0020F11D0DA6812F0020F0DD06FF034
:100F380002021A610123037703689B6913F0030F08
:100F480070D0FFF7E6FF0023237723681A6912F0B1
:100F5800040F12D0DA6812F0040F0ED06FF00402FA
:100F68001A610223237723689B6913F4407F5FD0BB
:100F78002046FFF7CEFF0023237723681A6912F073
:100F8800080F12D0DA6812F0080F0ED06FF00802BE
:100F98001A61042323772368DB6913F0030F4ED00B
:100FA8002046FFF7B6FF0023237723681A6912F05B
:100FB800100F12D0DA6812F0100F0ED06FF0100276
:100FC8001A61082323772368DB6913F4407F3DD037
:100FD8002046FFF79EFF0023237723681A6912F043
:100FE800010F03D0DA6812F0010F36D123681A69AD
:100FF80012F0800F03D0DA6812F0800F34D1236822
:101008001A6912F0400F03D0DA6812F0400F32D19B
:1010180023681A6912F0200F03D0DA6812F0200F43
:1010280030D110BDFFF774FF2046FFF773FF8AE742
:101038002046FFF76DFF2046FFF76CFF9BE7204631
:10104800FFF766FF2046FFF765FFACE72046FFF78E
:101058005FFF2046FFF75EFFBDE76FF001021A61F0
:101068002046FFF754FFC1E76FF080021A6120465F
:1010780000F02DF9C3E76FF040021A612046FFF730
:101088004AFFC5E76FF020021A61204600F01EF9FA
:10109800C7E700000368254A90420ED0B0F1804FA0
:1010A8000BD0A2F57C42904207D002F580629042B4
:1010B80003D002F58062904203D123F070034A689E
:1010C80013431A4A90421AD0B0F1804F17D0A2F5B4
:1010D8007C42904213D002F5806290420FD002F514
:1010E800806290420BD002F59A32904207D002F506
:1010F8008062904203D002F58062904203D123F4CB
:101108004073CA68134323F080034A69134303609A
:101118008B68C3620B688362044B984202D0012338
:10112800436170470B690363F9E700BF00000140A2
:10113800A8B110B5044690F83D305BB1022384F89D
:101148003D30211D2068FFF7A5FF012384F83D30BD
:10115800002010BD80F83C3000F0E0FDEEE70120F3
:10116800704710B4846824F47F4442EA03230B4395
:10117800234383605DF8044B704790F83C30012BA3
:1011880066D010B50446012380F83C30022380F86D
:101198003D300268936823F47F4323F0770393601C
:1011A8000B68402B4AD013D9602B3DD01ED9702B29
:1011B80028D0B3F5005F30D1CB684A6889680068E9
:1011C800FFF7CFFF2268936843F48043936024E0DD
:1011D800102B06D004D9202B03D0302B01D01CE0D3
:1011E800DBB919462068FFF78AFE16E0502B14D1A8
:1011F800CA6849680068FFF75BFE50212068FFF75E
:101208007EFE0AE0CB684A6889680068FFF7A9FF94
:101218002268936843F077039360012384F83D3094
:10122800002084F83C0010BDCA6849680068FFF7D0
:1012380052FE60212068FFF762FEEEE7CA6849683F
:101248000068FFF735FE40212068FFF758FEE4E705
:101258000220704790F83C30012B33D030B4012382
:1012680080F83C30022380F83D3003685C689D6854
:1012780024F070040A6822435A600368124A9342B1
:1012880012D0B3F1804F0FD0A2F57C4293420BD01D
:1012980002F58062934207D002F58062934203D040
:1012A80002F59A32934204D125F080054A68154325
:1012B8009D60012380F83D30002380F83C301846BB
:1012C80030BC7047022070470000014070477047EB
:1012D8000268D36823F49073D3600268536923F0DB
:1012E80001035361202380F83A30704790F8393071
:1012F800DBB2212B2AD18368B3F5805F16D0036A4D
:101308005A1C02621A7803685A60C38C013B9BB26C
:10131800C384EBB90268D36823F08003D360026802
:10132800D36843F04003D36000207047036A1B88EA
:101338000268C3F30803536003691BB9036A0233E5
:101348000362E2E7036A01330362DEE702207047C3
:10135800002070472DE9F04B04460268136923F416
:101368004053C1680B4313618368026913434269A0
:101378001343C2691A430168CB6823F4164323F068
:101388000C031343CB600268536923F440738169EB
:101398000B435361C369B3F5004F3BD00368714AEF
:1013A800934200F0AB8002F58062934200F0A68081
:1013B800FFF75EFD4FF00009061849EB090716EB29
:1013C800000B47EB090C4FEACC0343EA5B734FEA87
:1013D800CB0293469C4663689A009B0F10EB0B0068
:1013E80049EB0C01FEF7F4FE5F4DA5FB00325109F5
:1013F800642202FB110213013233A5FB03235B09AC
:1014080003F0F00202EB011203F00F03216813440A
:101418008B60A4E00368534A934239D002F5806296
:10142800934235D0FFF724FD83464FF0000C061891
:101438004CEB0C0716EB000847EB0C094FEAC90305
:1014480043EA58734FEAC8029046994662680021F9
:10145800921841EB01031BEB08004CEB0901FEF766
:10146800B7FE414DA5FB00325109642202FB11026F
:10147800D3003233A5FB03235B095A0002F4F87248
:1014880002EB011203F00703216813448B6066E046
:10149800FFF7FEFC80464FF00009061849EB0907E4
:1014A80016EB000B47EB090C4FEACC0343EA5B73DE
:1014B8004FEACB0293469C4662680021921841EBA2
:1014C800010318EB0B0049EB0C01FEF781FE264DDA
:1014D800A5FB00325109642202FB1102D30032330A
:1014E800A5FB03235B095A0002F4F87202EB011210
:1014F80003F00703216813448B6030E0FFF7C8FC52
:101508004FF00009061849EB090716EB000B47EBEB
:10151800090C4FEACC0343EA5B734FEACB029346CC
:101528009C4663689A009B0F10EB0B0049EB0C017B
:10153800FEF74EFE0C4DA5FB00325109642202FB5A
:10154800110213013233A5FB03235B0903F0F002F8
:1015580002EB011203F00F03216813448B60BDE80E
:10156800F08B00BF001001401F85EB512DE9F041C1
:1015780005460F4616469846069C2B681B6837EAB0
:1015880003030CBF01230023B3421DD1B4F1FF3F75
:10159800F3D02CB1FEF7EEFFA0EB0800A042ECD987
:1015A8002A68D36823F4D073D3602A68536923F078
:1015B80001035361202385F8393085F83A30002338
:1015C80085F83830032000E00020BDE8F08158B3EA
:1015D80010B5044690F839300BB3242384F8393019
:1015E8002268D36823F40053D3602046FFF7B2FE85
:1015F8002268136923F4904313612268536923F026
:101608002A0353612268D36843F40053D36000204F
:10161800E063202384F8393084F83A3010BD80F82C
:10162800383000F0B3FBD8E7012070472DE9F043CC
:1016380083B01E4690F83930DBB2202B56D10446D1
:101648000D469046002956D0002A56D090F83830DA
:10165800012B54D0012380F838304FF00009C0F82E
:101668003C90212380F83930FEF784FF0746A4F820
:101678002480A4F8268084F8389010E000963B4631
:10168800002280212046FFF771FF002839D12B88DE
:101698002268C3F3080353602369C3B90235E38C96
:1016A8009BB2B3B1E38C013B9BB2E384A368B3F56F
:1016B800805FE3D000963B46002280212046FFF75A
:1016C80055FF00BB2A7823685A600135E7E70135E2
:1016D800E5E700963B46002240212046FFF746FFFB
:1016E800034690B9202284F8392000E002231846E6
:1016F80003B0BDE8F0830123F9E70123F7E70223EC
:10170800F5E70323F3E70323F1E70323EFE790F873
:101718003A30DBB2202B20D109B312B390F838301D
:10172800012B20D081628285C2850023C3632222D7
:1017380080F83A2080F838300168CA6842F480722C
:10174800CA6001684A6942F001024A610168CA68D0
:1017580042F02002CA6018467047022070470120F4
:1017680070470120704702207047704708B501682C
:10177800CB6823F04003CB60202380F83930FFF793
:10178800F4FF002008BD08B590F83A30DBB2222BF0
:1017980045D18368B3F5805F0ED0036903BB036846
:1017A8005A68836A591C81621A70C38D013B9BB2C7
:1017B800C385F3B1002033E0826A036943B9036843
:1017C8005B68C3F308031380836A02338362ECE720
:1017D80003685B68DBB21380836A01338362E4E7E2
:1017E80003685B68826A511C816203F07F0313708F
:1017F800DBE70268D36823F02003D3600268D3686C
:1018080023F48073D3600268536923F001035361A2
:10181800202380F83A3000F00FF9002000E0022081
:1018280008BD704710B5044602681368D16852694C
:1018380013F00F0005D113F0200F02D011F0200F84
:1018480056D100286AD012F0010202D111F4907F1B
:1018580064D013F0010F06D011F4807F03D0E06B41
:1018680040F00100E06313F0040F04D01AB1E06BFC
:1018780040F00200E06313F0020F04D01AB1E06BED
:1018880040F00400E06313F0080F07D011F0200FB8
:1018980000D11AB1E26B42F00802E263E26B002A5F
:1018A80048D013F0200F02D011F0200F24D1236864
:1018B8005B6903F04003E26B12F0080F00D13BB301
:1018C8002046FFF705FD23685A6912F0400F1BD028
:1018D8005A6922F040025A61636B8BB11A4A1A6541
:1018E800606BFEF7B7FE28B3606B036D984721E085
:1018F8002046FFF748FF1DE02046FFF744FFD6E7E4
:101908002046FFF78EFF15E02046FFF78AFF11E01B
:101918002046FFF786FF0023E3630BE013F0800FF8
:1019280002D011F0800F06D113F0400F02D011F051
:10193800400F04D110BD2046FFF7D8FCFAE7204637
:10194800FFF714FFF6E700BF5519000808B5806BCC
:101958000023C385C384FFF764FF08BDF0B589B0D1
:101968000024039404940594069407940094204B4F
:101978001A6B42F080021A631A6B02F0800200921E
:10198800009A01941A6B42F001021A631A6B02F072
:1019980001020192019A02941A6B42F008021A633A
:1019A8001B6B03F008030293029B124F224620216F
:1019B8003846FEF735FF104E22464FF47041304648
:1019C800FEF72EFF20230393012504950594069521
:1019D80003A93846FEF752FE4FF47043039304956B
:1019E8000594069403A93046FEF748FE09B0F0BDF9
:1019F8000038024000000240000C024010B50D4CB7
:101A080000224FF400412046FEF70AFF00224FF45F
:101A180000512046FEF704FF00224FF48041204683
:101A2800FEF7FEFE00224FF480512046FEF7F8FE36
:101A380010BD00BF000C024038B50268414B9A4205
:101A480005D0012240494148FFF761FE38BD3E4BB1
:101A58001B78312B2AD03C4B1B78322B41D03A4B88
:101A68001B78332B4FD0384B1B78342BE9D1FFF739
:101A7800C5FF374C04F164052846FEF729FD6423A9
:101A880082B229463148FFF7D1FD324D01224FF489
:101A980000412846FEF7C4FE01224FF48041284643
:101AA800FEF7BEFE002384F8C730CAE7FFF7A6FF9B
:101AB800274C2046FEF70CFD642382B221462348BA
:101AC800FFF7B4FD234D4FF400412846FEF7AEFE64
:101AD8004FF400512846FEF7A9FE002384F863302E
:101AE800B9E7FFF78BFF1A4C04F164052846FEF7A7
:101AF800EFFC642382B229461448FFF797FD0023C0
:101B080084F8C730ABE7FFF779FF114C04F164059F
:101B18002846FEF7DDFC642382B229460B48FFF70E
:101B280085FD0C4D01224FF480512846FEF778FEC2
:101B380001224FF400512846FEF772FE002384F874
:101B4800C73090E700440040F6000020380100202C
:101B580008000020000C024030B595B0302200216A
:101B680008A800F0A1F900240394049405940694AD
:101B7800079401941B4B1A6C42F080521A641B6C38
:101B880003F080530193019B0294174B1A6842F4A7
:101B980040421A601B6803F440430293029B0123EE
:101BA80008934FF48033099302250E954FF4800370
:101BB8000F9304231093C0221192129308231393B6
:101BC80008A8FEF73DFE0F230393049505944FF4F0
:101BD800A05306930794032103A8FFF793F815B0C1
:101BE80030BD00BF003802400070004008B5FEF765
:101BF8009BFCFFF7B1FFFFF7B1FE00F055F800F0CE
:101C0800ABF8012202490348FFF781FDFEE700BF58
:101C1800F6000020380100207047000082B0002143
:101C280000910B4B5A6C42F480425A645A6C02F48D
:101C380080420092009A01911A6C42F080521A6414
:101C48001B6C03F080530193019B02B0704700BFE7
:101C5800003802407047FEE7FEE7FEE7FEE7704700
:101C68007047704708B5FEF779FC08BD08B502480B
:101C7800FFF752F908BD00BFF800002008B5024878
:101C8800FFF7D0FD08BD00BF38010020054BD3F891
:101C9800882042F47002C3F888204FF000629A60EE
:101CA800704700BF00ED00E000B587B00023029345
:101CB8000393049305930093019317484FF08042D0
:101CC800026048F69F42426083604FF47A62C260C5
:101CD80003618361FFF72CFAA0B906A94FF480537A
:101CE80041F8103D0C48FFF748FA70B920230093DB
:101CF8000023019369460848FFF7ACFA40B907B0DA
:101D08005DF804FBFFF788FFE7E7FFF785FFEDE7DE
:101D1800FFF782FFF3E700BFF80000200368B3F184
:101D2800804F00D0704700B583B00021019103F5C2
:101D38000E331A6C42F001021A641B6C03F00103A3
:101D48000193019B0A461C20FEF72CFC1C20FEF781
:101D58005DFC03B05DF804FB08B50A480A4B036054
:101D68004FF41653436000238360C36003610C2261
:101D780042618361C361FFF72AFC00B908BDFFF720
:101D88004BFFFBE7380100200044004010B588B045
:101D98000023039304930593069307930268194B52
:101DA8009A4201D008B010BD0024019403F5FA331B
:101DB8001A6C42F400321A641A6C02F4003201926E
:101DC800019A02941A6B42F001021A631B6B03F02A
:101DD80001030293029B0C23039302230493012320
:101DE8000593032306930723079303A90648FEF7E1
:101DF80045FC224621462620FEF7D4FB2620FEF786
:101E080005FCCFE70044004000000240DFF834D072
:101E1800002103E00C4B5B58435004310B480C4B3A
:101E280042189A42F6D30B4A02E0002342F8043BD8
:101E3800094B9A42F9D3FFF729FF00F011F8FFF791
:101E4800D5FE704700000220001F00080000002097
:101E5800D4000020D400002078010020FEE7000014
:101E680070B50D4E0D4CA41BA4100025A54209D138
:101E78000B4E0C4C00F020F8A41BA4100025A54222
:101E880005D170BD56F8253098470135EEE756F86C
:101E9800253098470135F2E7F81E0008F81E0008BB
:101EA800F81E0008FC1E000802440346934200D1B5
:101EB800704703F8011BF9E7F8B500BFF8BC08BC88
:101EC8009E467047F8B500BFF8BC08BC9E467047F0
:101ED80000000000000000000102030406070809D2
:081EE8000000000001020304E8
:081EF00018E3FF7F0100000070
:041EF800BD01000820
:041EFC009901000840
:101F000001000000100000005354520A00000000BD
:101F100000000000000000000000000000000000C1
:101F200000000000000000000000000000000000B1
:101F300000000000000000000000000000000000A1
:101F40000000000000000000000000000000000091
:101F50000000000000000000000000000000000081
:101F60000000000000000000000000004E4F542060
:101F70005354520A0000000000000000000000005E
:101F80000000000000000000000000000000000051
:101F90000000000000000000000000000000000041
:101FA0000000000000000000000000000000000031
:101FB0000000000000000000000000000000000021
:101FC0000000000000000000000000000000000011
:041FD0000024F400F5
:0400000508001E15BC
:00000001FF
