:020000040800F2
:1000000000000220D9250008152200081722000848
:10001000192200081B2200081D2200080000000011
:100020000000000000000000000000001F22000887
:1000300021220008000000002322000825220008D9
:100040002926000829260008292600082926000854
:100050002926000829260008292600082926000844
:100060002926000829260008292600082926000834
:100070002926000829260008292600082926000824
:10008000292600082926000829260008000000006B
:100090000000000000000000000000002926000809
:1000A0002D2200083D2200084D2200085D22000894
:1000B0006D220008292600082926000829260008A4
:1000C00029260008292600082926000829260008D4
:1000D00029260008292600087D22000800000000CB
:1000E0008D220008292600082926000800000000AB
:1000F00000000000000000000000000029260008A9
:1001000000000000292600082926000829260008EA
:1001100000000000000000000000000000000000DF
:100120002926000829260008292600082926000873
:100130002926000800000000000000000000000068
:100140000000000000000000000000002926000858
:100150002926000829260008292600082926000843
:1001600029260008292600080000000000000000E1
:10017000000000000000000000000000000000007F
:100180000000000029260008000000000000000018
:080190002926000829260008B9
:1001980010B5054C237833B9044B13B10448AFF3B9
:1001A80000800123237010BDDC0000200000000047
:1001B8008426000808B5034B1BB103490348AFF375
:1001C800008008BD00000000E00000208426000830
:1001D80053B94AB9002908BF00281CBF4FF0FF31A6
:1001E8004FF0FF3000F072B9ADF1080C6DE904CEA4
:1001F80000F006F8DDF804E0DDE9022304B07047FA
:100208002DE9F047089E04468846002B4BD18A42C8
:10021800154667D9B2FA82F24AB1C2F1200701FA4B
:1002280002F320FA07F7954047EA030894404FEA9B
:10023800154E230CB8FBFEF71FFA85FC0EFB17883A
:1002480043EA084307FB0CF1994209D9EB1807F177
:10025800FF3080F01B81994240F21881023F2B4405
:100268005B1AA4B2B3FBFEF00EFB103344EA03445E
:1002780000FB0CFCA44509D92C1900F1FF3380F0D0
:100288000781A44540F2048102382C4440EA074023
:10029800A4EB0C0400271EB1D4400023C6E9004398
:1002A8003946BDE8F0878B4209D9002E00F0EB8073
:1002B8000027C6E9000138463946BDE8F087B3FA99
:1002C80083F7002F47D18B4202D3824200F2FA8093
:1002D800841A61EB030301209846002EE0D0C6E99A
:1002E8000048DDE702B9FFDEB2FA82F2002A40F0E8
:1002F8008F80491B4FEA154E1FFA85F80127B1FB7D
:10030800FEFC230C0EFB1C1143EA014308FB0CF115
:10031800994207D9EB180CF1FF3002D2994200F24A
:10032800CD808446591AA3B2B1FBFEF00EFB10141F
:1003380043EA044408FB00F8A04507D92C1900F14A
:10034800FF3302D2A04500F2B6801846A4EB080499
:1003580040EA0C409FE7C7F1200CBB4022FA0CFE94
:100368004EEA030E01FA07F420FA0CF521FA0CF311
:100378004FEA1E482543B3FBF8F92C0C08FB193348
:100388001FFA8EFA44EA034309FB0AF49C4202FA74
:1003980007F200FA07F10BD91EEB030309F1FF304E
:1003A80080F087809C4240F28480A9F1020973445E
:1003B8001B1BADB2B3FBF8F008FB103345EA03444E
:1003C80000FB0AFAA24508D91EEB040400F1FF332A
:1003D8006BD2A24569D90238744440EA0940A0FBAF
:1003E8000289A4EB0A044C45C2464B4654D351D06B
:1003F800002E69D0B1EB0A0564EB030404FA0CFC87
:10040800FD40FC404CEA0505C6E90054002747E7D3
:10041800C2F1200320FA03F7954001FA02F021FA0D
:1004280003F34FEA154E3843010CB3FBFEF71FFAEE
:1004380085F80EFB173341EA034107FB08F38B42AB
:1004480004FA02F407D9691807F1FF3C2FD28B424E
:100458002DD9023F2944CB1A81B2B3FBFEF00EFB23
:10046800103341EA034100FB08F38B4207D96918AE
:1004780000F1FF3C17D28B4215D902382944C91A1A
:1004880040EA07473BE73746304609E70746E7E6CD
:100498001846FBE64145ABD2B8EB020A69EB0E02FF
:1004A80001381346A4E76046E9E7184695E767462A
:1004B800D1E781467CE702382C4447E7ACF1020CCF
:1004C8002B442FE7384608E73746E9E6704700BF70
:1004D80010B504460E4B18784FF47A73B3FBF0F35B
:1004E8000C4A1068B0FBF3F000F096F868B90F2CCE
:1004F80001D901200AE0002221464FF0FF3000F028
:1005080049F8034B5C60002000E0012010BD00BFEB
:1005180000000020D800002008B50B4B1A6842F4F0
:1005280000721A601A6842F480621A601A6842F40B
:1005380080721A60032000F01BF80020FFF7C8FF44
:1005480001F048FE002008BD003C0240034A116843
:10055800034B1B780B441360704700BFFC0000205E
:1005680000000020014B1868704700BFFC00002005
:10057800074AD36823F4E0631B041B0C000200F451
:10058800E060184340F0BF6040F40030D06070472E
:1005980000ED00E030B4174BDB68C3F30223C3F16E
:1005A8000704042C28BF04241D1D062D18D9033B5D
:1005B8004FF0FF3505FA04F421EA0401994005FAE1
:1005C80003F322EA0303194300280BDB0901C9B22C
:1005D80000F1604000F5614080F8001330BC7047BE
:1005E8000023E5E700F00F000901C9B2024B1954D6
:1005F800F4E700BF00ED00E014ED00E0002807DBA1
:1006080000F01F02400901239340024A42F82030BB
:10061800704700BF00E100E00138B0F1807F0AD2E6
:10062800064B5860064AF02182F823100020986093
:1006380007221A6070470120704700BF10E000E0F1
:1006480000ED00E090F83530DBB2022B03D08023B8
:10065800436501207047052380F835300268136828
:1006680023F00103136000207047000000230F2BC4
:1006780000F2C580F0B583B039E0042200E0002222
:10068800AA403A4302345E4D45F824205D4A146876
:10069800F24302EA04054F6817F4803F01D046EAA6
:1006A8000405584C2560646802EA04054F6817F48D
:1006B800003F01D046EA0405524C6560A46802EA8E
:1006C80004054F6817F4801F01D046EA04054D4C15
:1006D800A560E46822404D6815F4001F01D046EA81
:1006E8000402484CE26001330F2B00F2868001229D
:1006F8009A400C6804EA0206B242F4D14C68651EBE
:10070800012D03D9112C01D0122C12D185685F005C
:100718000324BC4025EA0405CC68BC402C43846013
:10072800456825EA02054C68C4F300129A402A433A
:100738004260C4685F000322BA40D24314408D6807
:10074800BD402543C5604C68022C01D0122C13D142
:10075800DD08083550F825E003F007044FEA840C5B
:100768000F2404FA0CF42EEA040E0C6904FA0CF4B3
:1007780044EA0E0440F82540046822404C6804F01E
:100788000304BC40224302604A6812F0805FAAD08A
:10079800002201921C4A546C44F480445464526C04
:1007A80002F480420192019A9C08A51C144A52F84E
:1007B800257003F0030295000F22AA4027EA0207DA
:1007C800124A90423FF45BAF02F5806290420ED02D
:1007D80002F5806290420CD002F5806290420AD005
:1007E80002F5806290423FF448AF072248E70122B1
:1007F80046E7022244E7032242E703B0F0BD704710
:1008080000380140003C014000380240000002402E
:100818000369194201D1002070470120704712B9BD
:1008280009048161704781617047436931EA0303B4
:1008380001D08161704709048161704708B5054B93
:100848005B69034200D108BD024B586101F030FAE0
:10085800F9E700BF003C0140002800F0E48170B5D2
:1008680082B00446036813F0010F3BD0A74B9B6886
:1008780003F00C03042B2CD0A44B9B6803F00C034F
:10088800082B21D06368B3F5803F4FD0B3F5A02F74
:1008980052D09E4B1A6822F480321A601A6822F4E9
:1008A80080221A606368002B50D0FFF75BFE054674
:1008B800964B1B6813F4003F14D1FFF753FE401BFF
:1008C8006428F5D90320B3E1904B5B6813F4800FDB
:1008D800D8D08E4B1B6813F4003F03D06368002BFD
:1008E80000F0A381236813F0020F55D0874B9B6853
:1008F80013F00C0F3ED0854B9B6803F00C03082BBC
:1009080033D0E368002B68D0814B01221A60FFF7CF
:1009180029FE05467D4B1B6813F0020F54D1FFF7E3
:1009280021FE401B0228F5D9032081E1774A13688C
:1009380043F480331360B5E7744B1A6842F480229D
:100948001A601A6842F480321A60ABE7FFF70AFEB1
:1009580005466E4B1B6813F4003FC3D0FFF702FE39
:10096800401B6428F5D9032062E1684B5B6813F4E7
:10097800800FC6D1654B1B6813F0020F04D0E368E3
:10098800012B01D0012053E1604A136823F0F803DA
:10099800216943EAC1031360236813F0080F40D0AC
:1009A800636963B35B4B01221A60FFF7DBFD054601
:1009B800564B5B6F13F0020F33D1FFF7D3FD401B8B
:1009C8000228F5D9032033E1504A136823F0F803CD
:1009D800216943EAC1031360DEE74D4B00221A6028
:1009E800FFF7C0FD0546494B1B6813F0020FD3D033
:1009F800FFF7B8FD401B0228F5D9032018E1454B45
:100A080000221A60FFF7AEFD0546404B5B6F13F0FE
:100A1800020F06D0FFF7A6FD401B0228F5D90320D8
:100A280006E1236813F0040F79D0384B1B6C13F0E0
:100A3800805F33D100230193344B1A6C42F080520B
:100A48001A641B6C03F080530193019B0125324B00
:100A58001B6813F4807F23D0A368012B34D0052BA7
:100A680038D02A4B1A6F22F001021A671A6F22F047
:100A780004021A67A368002B36D0FFF773FD0646F9
:100A8800224B1B6F13F0020F48D1FFF76BFD801B41
:100A980041F288339842F3D90320C9E00025D6E70C
:100AA8001D4A136843F480731360FFF75BFD064625
:100AB800194B1B6813F4807FCED1FFF753FD801BC1
:100AC8000228F5D90320B3E0104A136F43F001035D
:100AD8001367CFE70D4B1A6F42F004021A671A6FBB
:100AE80042F001021A67C5E7FFF73CFD0646074BCF
:100AF8001B6F13F0020F11D0FFF734FD801B41F27A
:100B080088339842F3D9032092E000BF00380240AE
:100B180000004742800E474200700040EDB9A369CB
:100B2800002B00F08480454A926802F00C02082AE3
:100B380051D0022B17D0424B00221A60FFF712FD4A
:100B480004463E4B1B6813F0007F42D0FFF70AFDB6
:100B5800001B0228F5D903206AE0384A136C23F0F9
:100B680080531364DBE7364B00221A60FFF7FAFC68
:100B78000546324B1B6813F0007F06D0FFF7F2FCE6
:100B8800401B0228F5D9032052E0E369226A134387
:100B9800626A43EA8213A26A5208013A43EA0243AC
:100BA800E26A43EA0263254A5360254B01221A6030
:100BB800FFF7D8FC0446214B1B6813F0007F06D1D1
:100BC800FFF7D0FC001B0228F5D9032030E00020F5
:100BD8002EE000202CE0012B2CD0184B9B6803F44E
:100BE8008001E269914201D0012021E003F03F0237
:100BF800216A8A4201D001201AE0616A47F6C07270
:100C08001A408A4201D0012012E003F44032A16A5E
:100C18008A4201D001200BE003F07063E26A93423C
:100C28000AD0012004E001207047012000E00020E4
:100C380002B070BD0120FBE70020F9E70038024050
:100C480060004742324B9B6803F00C03042B5CD0D6
:100C5800082B01D02F4870472DE9F04B2C4B5A68D0
:100C680002F03F025B6813F4800F2BD0284B5B68BF
:100C7800C3F388131E4600275C010025E41A65EBC0
:100C88000705A90141EA9461A001001B61EB050178
:100C9800CB0043EA5073C400A01943EB07014B0291
:100CA80043EAD0534402204619460023FFF790FA3E
:100CB800174B5B68C3F3014301335B00B0FBF3F0F0
:100CC800BDE8F08B124B5B68C3F388131E46002700
:100CD8005C010025E41A65EB0705A90141EA946166
:100CE800A001001B61EB0501CB0043EA5073C4006F
:100CF800A01943EB07018B0243EA90538402204674
:100D080019460023FFF764FAD2E70348704700BF8B
:100D1800003802400024F40000127A00002800F095
:100D28009E8070B50446504B1B6803F00F038B423E
:100D380009D2CBB24C4A1370136803F00F038B42ED
:100D480001D0012070BD236813F0020F17D013F0F3
:100D5800040F04D0454A936843F4E0539360236832
:100D680013F0080F04D0414A936843F4604393603A
:100D78003E4A936823F0F003A068034393600D464E
:100D8800236813F0010F32D06368012B21D09A1E1B
:100D9800012A25D9354A126812F0020F61D0334969
:100DA8008A6822F0030213438B60FFF7DBFB0646D9
:100DB8002E4B9B6803F00C036268B3EB820F16D0CE
:100DC800FFF7D0FB801B41F288339842F0D903200B
:100DD800B8E7264A126812F4003FE0D10120B1E7D3
:100DE800224A126812F0007FD9D10120AAE71E4BCF
:100DF8001B6803F00F03AB4209D9EAB21A4B1A7009
:100E08001B6803F00F03AB4201D001209AE7236867
:100E180013F0040F06D0154A936823F4E053E168F1
:100E28000B439360236813F0080F07D00F4A9368A9
:100E380023F46043216943EAC1039360FFF702FF8B
:100E48000A4B9B68C3F30313094AD35CD840094B88
:100E58001860094B1868FFF73BFB002072E7012078
:100E6800704701206EE700BF003C02400038024096
:100E78009C260008D800002004000020014B1868B8
:100E8800704700BFD800002008B5FFF7F7FF044BF4
:100E98009B68C3F38223034AD35CD84008BD00BFD4
:100EA80000380240AC26000808B5FFF7E7FF044BFE
:100EB8009B68C3F34233034AD35CD84008BD00BFE4
:100EC80000380240AC26000870B4036A23F001031E
:100ED8000362036A4268846924F073040D6845EA72
:100EE800040623F002048B6823430D4DA84209D061
:100EF8000B4DA8420DD0426086614A684263036286
:100F080070BC704723F00803CC68234323F0040324
:100F1800EEE722F440724C6914438A692243EAE7F7
:100F28000000014030B4036A23F480730362036A4B
:100F38004268C46924F073040D682C4323F40073D9
:100F48008D6843EA05230F4DA84209D00D4DA842EC
:100F58000ED04260C4614A68C263036230BC704705
:100F680023F40063CD6843EA052323F48063EDE7A7
:100F780022F440524D6942EA05128D6942EA05128F
:100F8800E7E700BF0000014030B4036A23F4805350
:100F98000362036A4468C26922F4E6420D6842EAC1
:100FA800052223F400538D6843EA0533074DA84210
:100FB80006D04460C2614A680264036230BC70476C
:100FC80024F480444D6944EA8514F2E700000140A6
:100FD80010B4036A046A24F001040462846924F0EA
:100FE800F00444EA021223F00A030B43826103620D
:100FF8005DF8044B704710B4036A23F010030362D2
:101008008469036A24F4704444EA023223F0A0039A
:1010180043EA0113826103625DF8044B70478368F9
:1010280023F07003194341F007018160704770474E
:101038007047704770477047704710B5044603689B
:101048001A6912F0020F11D0DA6812F0020F0DD0EF
:101058006FF002021A610123037703689B6913F09A
:10106800030F70D0FFF7E6FF0023237723681A6980
:1010780012F0040F12D0DA6812F0040F0ED06FF0DD
:1010880004021A610223237723689B6913F4407FC3
:101098005FD02046FFF7CEFF0023237723681A6925
:1010A80012F0080F12D0DA6812F0080F0ED06FF0A5
:1010B80008021A61042323772368DB6913F0030FFE
:1010C8004ED02046FFF7B6FF0023237723681A691E
:1010D80012F0100F12D0DA6812F0100F0ED06FF065
:1010E80010021A61082323772368DB6913F4407F11
:1010F8003DD02046FFF79EFF0023237723681A6917
:1011080012F0010F03D0DA6812F0010F36D123680C
:101118001A6912F0800F03D0DA6812F0800F34D108
:1011280023681A6912F0400F03D0DA6812F0400FF2
:1011380032D123681A6912F0200F03D0DA6812F04E
:10114800200F30D110BDFFF774FF2046FFF773FF63
:101158008AE72046FFF76DFF2046FFF76CFF9BE705
:101168002046FFF766FF2046FFF765FFACE72046FD
:10117800FFF75FFF2046FFF75EFFBDE76FF0010254
:101188001A612046FFF754FFC1E76FF080021A6129
:10119800204600F03DFAC3E76FF040021A6120468E
:1011A800FFF74AFFC5E76FF020021A61204600F0FA
:1011B8002EFAC7E70368254A90420ED0B0F1804F57
:1011C8000BD0A2F57C42904207D002F58062904293
:1011D80003D002F58062904203D123F070034A687D
:1011E80013431A4A90421AD0B0F1804F17D0A2F593
:1011F8007C42904213D002F5806290420FD002F5F3
:10120800806290420BD002F59A32904207D002F5E4
:101218008062904203D002F58062904203D123F4A9
:101228004073CA68134323F080034A691343036079
:101238008B68C3620B688362044B984202D0012317
:10124800436170470B690363F9E700BF0000014081
:10125800A8B110B5044690F83D305BB1022384F87C
:101268003D30211D2068FFF7A5FF012384F83D309C
:10127800002010BD80F83C3001F052F8EEE7012064
:101288007047A8B110B5044690F83D305BB1022311
:1012980084F83D30211D2068FFF78CFF012384F876
:1012A8003D30002010BD80F83C30FFF7C0FEEEE76F
:1012B8000120704730B4036A23F010030362036A05
:1012C8004468826922F4E6420D6842EA052223F066
:1012D80020038D6843EA05130E4DA84209D00D4D31
:1012E800A8420ED0446082614A688263036230BCBF
:1012F800704723F08003CD6843EA051323F04003C9
:10130800EDE724F440644D6944EA85048D6944EAB4
:101318008504E7E70000014038B590F83C30012B20
:1013280066D00D460446012380F83C30022380F83D
:101338003D300C2A1AD8DFE802F0071919192019CC
:1013480019193419191947000068FFF7BDFD2268FB
:10135800936943F0080393612268936923F00403B7
:1013680093612268936929690B439361012384F887
:101378003D30002084F83C0038BD0068FFF79AFF34
:101388002268936943F4006393612268936923F4A4
:101398008063936122689369296943EA0123936111
:1013A800E4E70068FFF7BEFD2268D36943F008034D
:1013B800D3612268D36923F00403D3612268D36917
:1013C80029690B43D361D1E70068FFF7DDFD226887
:1013D800D36943F40063D3612268D36923F480633B
:1013E800D3612268D369296943EA0123D361BDE740
:1013F8000220C1E710B4846824F47F4442EA03233E
:101408000B43234383605DF8044B704790F83C30EE
:10141800012B66D010B50446012380F83C30022326
:1014280080F83D300268936823F47F4323F0770304
:1014380093600B68402B4AD013D9602B3DD01ED93E
:10144800702B28D0B3F5005F30D1CB684A68896823
:101458000068FFF7CFFF2268936843F480439360E6
:1014680024E0102B06D004D9202B03D0302B01D038
:101478001CE0DBB919462068FFF7D1FD16E0502BB8
:1014880014D1CA6849680068FFF7A2FD5021206896
:10149800FFF7C5FD0AE0CB684A6889680068FFF76E
:1014A800A9FF2268936843F077039360012384F8C7
:1014B8003D30002084F83C0010BDCA6849680068C7
:1014C800FFF799FD60212068FFF7A9FDEEE7CA68DC
:1014D80049680068FFF77CFD40212068FFF79FFD01
:1014E800E4E70220704710B401F01F01012303FA5A
:1014F80001F4036A23EA04030362036A8A4013437C
:1015080003625DF8044B704710B504460122006879
:10151800FFF7E9FF23680A4A93420BD022689368D1
:1015280003F00703062B03D0136843F0010313608D
:10153800002010BD5A6C42F400425A64EEE700BF26
:101548000000014090F83C30012B33D030B4012327
:1015580080F83C30022380F83D3003685C689D6861
:1015680024F070040A6822435A600368124A9342BE
:1015780012D0B3F1804F0FD0A2F57C4293420BD02A
:1015880002F58062934207D002F58062934203D04D
:1015980002F59A32934204D125F080054A68154332
:1015A8009D60012380F83D30002380F83C301846C8
:1015B80030BC7047022070470000014090F83C3072
:1015C800012B22D0012380F83C30CB6823F44073F0
:1015D8008A68134323F480634A68134323F400633F
:1015E8000A68134323F480530A69134323F400530E
:1015F8004A69134323F48043CA6913430268536456
:10160800002380F83C301846704702207047704726
:1016180070470268D36823F49073D36002685369F3
:1016280023F001035361202380F83A30704790F883
:101638003930DBB2212B2AD18368B3F5805F16D00D
:10164800036A5A1C02621A7803685A60C38C013B09
:101658009BB2C384EBB90268D36823F08003D360DC
:101668000268D36843F04003D36000207047036AE0
:101678001B880268C3F30803536003691BB9036A34
:1016880002330362E2E7036A01330362DEE7022002
:1016980070470020704700002DE9F04B04460268AF
:1016A800136923F44053C1680B43136183680269CB
:1016B800134342691343C2691A430168CB6823F490
:1016C800164323F00C031343CB600268536923F4D9
:1016D800407381690B435361C369B3F5004F3BD035
:1016E8000368714A934200F0AB8002F5806293422E
:1016F80000F0A680FFF7C8FB4FF00009061849EB79
:10170800090716EB000B47EB090C4FEACC0343EA39
:101718005B734FEACB0293469C4663689A009B0F23
:1017280010EB0B0049EB0C01FEF752FD5F4DA5FBDA
:1017380000325109642202FB110213013233A5FB66
:1017480003235B0903F0F00202EB011203F00F031D
:10175800216813448B60A4E00368534A934239D04C
:1017680002F58062934235D0FFF78EFB83464FF037
:10177800000C06184CEB0C0716EB000847EB0C099D
:101788004FEAC90343EA58734FEAC802904699469C
:1017980062680021921841EB01031BEB08004CEB37
:1017A8000901FEF715FD414DA5FB003251096422E0
:1017B80002FB1102D3003233A5FB03235B095A0055
:1017C80002F4F87202EB011203F0070321681344D4
:1017D8008B6066E0FFF768FB80464FF0000906184B
:1017E80049EB090716EB000B47EB090C4FEACC0352
:1017F80043EA5B734FEACB0293469C46626800213A
:10180800921841EB010318EB0B0049EB0C01FEF7B2
:10181800DFFC264DA5FB00325109642202FB1102B0
:10182800D3003233A5FB03235B095A0002F4F87294
:1018380002EB011203F00703216813448B6030E0C8
:10184800FFF732FB4FF00009061849EB090716EBC2
:10185800000B47EB090C4FEACC0343EA5B734FEAF2
:10186800CB0293469C4663689A009B0F10EB0B00D3
:1018780049EB0C01FEF7ACFC0C4DA5FB00325109FD
:10188800642202FB110213013233A5FB03235B0917
:1018980003F0F00202EB011203F00F032168134476
:1018A8008B60BDE8F08B00BF001001401F85EB5135
:1018B80058B310B5044690F839300BB3242384F894
:1018C80039302268D36823F40053D3602046FFF7E9
:1018D800E3FE2268136923F4904313612268536975
:1018E80023F02A0353612268D36843F40053D3607A
:1018F8000020E063202384F8393084F83A3010BDA2
:1019080080F8383000F024FED8E70120704790F8BE
:101918003A30DBB2202B20D109B312B390F838301B
:10192800012B20D081628285C2850023C3632222D5
:1019380080F83A2080F838300168CA6842F480722A
:10194800CA6001684A6942F001024A610168CA68CE
:1019580042F02002CA6018467047022070470120F2
:1019680070470120704702207047704708B501682A
:10197800CB6823F04003CB60202380F83930FFF791
:10198800F4FF002008BD08B590F83A30DBB2222BEE
:1019980045D18368B3F5805F0ED0036903BB036844
:1019A8005A68836A591C81621A70C38D013B9BB2C5
:1019B800C385F3B1002033E0826A036943B9036841
:1019C8005B68C3F308031380836A02338362ECE71E
:1019D80003685B68DBB21380836A01338362E4E7E0
:1019E80003685B68826A511C816203F07F0313708D
:1019F800DBE70268D36823F02003D3600268D3686A
:101A080023F48073D3600268536923F001035361A0
:101A1800202380F83A3000F0AFFA002000E00220DE
:101A280008BD704710B5044602681368D16852694A
:101A380013F00F0005D113F0200F02D011F0200F82
:101A480056D100286AD012F0010202D111F4907F19
:101A580064D013F0010F06D011F4807F03D0E06B3F
:101A680040F00100E06313F0040F04D01AB1E06BFA
:101A780040F00200E06313F0020F04D01AB1E06BEB
:101A880040F00400E06313F0080F07D011F0200FB6
:101A980000D11AB1E26B42F00802E263E26B002A5D
:101AA80048D013F0200F02D011F0200F24D1236862
:101AB8005B6903F04003E26B12F0080F00D13BB3FF
:101AC8002046FFF7A6FD23685A6912F0400F1BD085
:101AD8005A6922F040025A61636B8BB11A4A1A653F
:101AE800606BFEF7AFFD28B3606B036D984721E08C
:101AF8002046FFF748FF1DE02046FFF744FFD6E7E2
:101B08002046FFF78EFF15E02046FFF78AFF11E019
:101B18002046FFF786FF0023E3630BE013F0800FF6
:101B280002D011F0800F06D113F0400F02D011F04F
:101B3800400F04D110BD2046FFF779FDFAE7204693
:101B4800FFF714FFF6E700BF551B000808B5806BC8
:101B58000023C385C384FFF764FF08BDF0B58BB0CD
:101B680000240594069407940894099400943C4B27
:101B78001A6B42F004021A631A6B02F00402009214
:101B8800009A01941A6B42F080021A631A6B02F0F1
:101B980080020192019A02941A6B42F001021A63C0
:101BA8001A6B02F001020292029A03941A6B42F035
:101BB80010021A631A6B02F010020392039A04943B
:101BC8001A6B42F008021A631B6B03F008030493B4
:101BD800049B244F224620213846FEF720FE224D42
:101BE80022464FF472412846FEF719FE202305933A
:101BF800012606960794089605A93846FEF736FD8D
:101C08004FF4807305930694079405A92846FEF7B8
:101C18002DFD4FF47243059306960794089405A981
:101C28002846FEF723FD4FF4806305930F4B069378
:101C3800079405A92846FEF719FD4FF4307305935C
:101C48000694079405A90A48FEF710FD2246214686
:101C58002820FEF79FFC2820FEF7D0FC0BB0F0BD33
:101C68000038024000000240000C02400000311021
:101C78000008024070B5FEF7E5FF0B4EA6FB0036E4
:101C8800B60CFEF76FFC0446084B9D68FEF76AFC2D
:101C9800A042F6D14FF47A7000FB06F35D1BB5FB4A
:101CA800F6F600FB046070BD83DE1B4310E000E025
:101CB800B0F5806F00D0704708B5104B1B78DBB2C9
:101CC800022B05D0032B0BD00C4B08221A7006E010
:101CD800FFF7D0FF0A4B1860084B03221A7008BDA3
:101CE800FFF7C8FF074B18601B68054A12689B1A64
:101CF800054A1360014B07221A70F0E7F80000202C
:101D0800BC010020100100200401002010B50D4C7A
:101D180000224FF400412046FEF781FD00224FF4D7
:101D280000512046FEF77BFD00224FF480412046FB
:101D3800FEF775FD00224FF480512046FEF76FFD37
:101D480010BD00BF000C024010B5FFF7DFFF074CC5
:101D580001224FF400412046FEF761FD01224FF4B5
:101D680000512046FEF75BFD10BD00BF000C02408D
:101D78007D4B1B784E2B00F0F58010B507E0FFF780
:101D8800C5FF7A4A116800230B605268136040212E
:101D98007748FEF73DFD012823D14FF400717448C0
:101DA800FEF736FD01281CD180217148FEF730FD71
:101DB8000128E4D015E0FFF7A9FF6C4B1A6803214E
:101DC80011605B6806221A606A4C01224FF40041D8
:101DD8002046FEF724FD01224FF480412046FEF7FD
:101DE8001EFD40216248FEF713FD012825D1802100
:101DF8005F48FEF70DFD00BB4FF4007100F1804015
:101E080000F50230FEF704FD0028D4D015E0FFF7F6
:101E18007DFF564B1A680A2111605B6803221A601D
:101E2800544C01224FF400412046FEF7F8FC0122F1
:101E38004FF480412046FEF7F2FC40214C48FEF763
:101E4800E7FC012825D180214948FEF7E1FC00BBC9
:101E58004FF4007100F1804000F50230FEF7D8FC25
:101E68000128D4D015E0FFF751FF404B1A6806212E
:101E780011605B6803221A603E4C01224FF4005146
:101E88002046FEF7CCFC01224FF480512046FEF795
:101E9800C6FC40213648FEF7BBFC30BB802100F170
:101EA800804000F50230FEF7B3FC01281DD14FF445
:101EB80000712F48FEF7ACFC0028D4D015E0FFF7DE
:101EC80025FF2A4B1A68032111605B680A221A60F1
:101ED800284C01224FF400512046FEF7A0FC0122B5
:101EE8004FF480512046FEF79AFC40212048FEF727
:101EF8008FFCD0B9802100F1804000F50230FEF758
:101F080087FC012811D14FF400711948FEF780FCB5
:101F18000128D4D009E0FFF7F9FEFFF715FF134AAF
:101F2800116806230B605268136040211048FEF7C1
:101F38006FFC88B9802100F1804000F50230FEF77F
:101F480067FC48B94FF4007100F1804000F5023099
:101F5800FEF75EFC0128DED0034B1B784E2B7FF486
:101F680016AF10BD704700BF0F0100200800002009
:101F780000080240000C024010B50268554B9A4216
:101F880005D0012254495548FFF7C1FC10BD524BFA
:101F98001B78412B32D0504B1B78422B40D04E4BF4
:101FA8001B78442B4ED04C4B1B78432B57D04A4BB5
:101FB8001B78302B60D0484B1B78332B5FD0464BB7
:101FC8001B78342B62D0444B1B78352B65D0424BA1
:101FD8001B78362B68D0404B1B78372B6BD03E4B89
:101FE8001B78382B6ED03C4B1B78392BC9D13C4A17
:101FF800116809230B6052681360C2E7FFF786FE79
:10200800384C4FF400412046FEF70FFC4FF40051C6
:102018002046FEF70AFC324B002283F86B20BAE711
:10202800FFF774FE2F4C4FF480412046FEF7FDFB6E
:102038004FF480512046FEF7F8FB294B002283F825
:10204800CF20ACE7FFF762FE01224FF4005125488C
:10205800FEF7E5FB224B002283F8CF20A3E7FFF72A
:1020680055FE01224FF400411E48FEF7D8FB1C4BD9
:10207800002283F8CF209AE7FFF748FE9BE7184A2B
:10208800116803230B605268136098E7144A1168BB
:1020980004230B605268136095E7114A1168052301
:1020A8000B605268136092E70D4A116806230B60B3
:1020B800526813608FE70A4A116807230B60526859
:1020C80013608CE7064A116808230B605268136096
:1020D80089E700BF004400400F0100207C01002078
:1020E80008000020000C024030B595B030220021D5
:1020F80008A800F0BBFA00240394049405940694FD
:10210800079401941B4B1A6C42F080521A641B6CA2
:1021180003F080530193019B0294174B1A6842F411
:1021280040421A601B6803F440430293029B012358
:1021380008934FF4A023099302250E954FF48003CA
:102148000F9304231093C022119212930823139320
:1021580008A8FEF781FB0F230393049505944FF419
:10216800805306930794032103A8FEF7D7FD15B003
:1021780030BD00BF003802400070004010B5FEF7C7
:10218800CBF9FFF7B1FFFFF7E9FC00F08FF800F09B
:10219800C5F900F045F90A4C04212046FFF7B4F9C7
:1021A80000212046FFF7B0F9012206490648FFF74B
:1021B800AEFB064B1B784C2BFBD1FFF7D9FDF8E79C
:1021C800C0010020080100207C0100200F01002030
:1021D8007047000082B0002100910B4B5A6C42F40A
:1021E80080425A645A6C02F480420092009A01912B
:1021F8001A6C42F080521A641B6C03F080530193EE
:10220800019B02B0704700BF003802407047FEE7EC
:10221800FEE7FEE7FEE770477047704708B5FEF730
:1022280095F908BD08B50248FEF707FF08BD00BFCD
:10223800C001002008B50248FEF7FFFE08BD00BF38
:10224800C001002008B50248FEF7F7FE08BD00BF30
:10225800C001002008B50248FEF7EFFE08BD00BF28
:10226800C001002008B50248FEF7E7FE08BD00BF20
:102278000002002008B50248FFF7D4FB08BD00BFE4
:102288007C01002008B54FF48060FEF7D7FA08BD3E
:10229800054BD3F8882042F47002C3F888204FF029
:1022A80000629A60704700BF00ED00E000B587B09B
:1022B8000023029303930493059300930193174813
:1022C8004FF08042026048F69F42426083604FF4BC
:1022D8007A62C26003618361FEF7BAFFA0B906A9FA
:1022E8004FF4805341F8103D0C48FFF78FF870B950
:1022F800202300930023019369460848FFF722F939
:1023080040B907B05DF804FBFFF762FFE7E7FFF7A6
:102318005FFFEDE7FFF75CFFF3E700BF0002002077
:1023280010B582B00368254A934204D0B3F1804FB8
:102338002ED002B010BD00240094214B5A6C42F0FC
:1023480001025A645B6C03F001030093009B224670
:1023580021461820FEF71EF91820FEF74FF92246ED
:1023680021461920FEF716F91920FEF747F92246EB
:1023780021461A20FEF70EF91A20FEF73FF92246E9
:1023880021461B20FEF706F91B20FEF737F9D0E798
:102398000021019103F50E331A6C42F001021A6410
:1023A8001B6C03F001030193019B0A461C20FEF7F6
:1023B800F1F81C20FEF722F9BBE700BF000001403E
:1023C8000038024000B587B00023019302930393BD
:1023D8000493059302680F4B9A4202D007B05DF848
:1023E80004FB002300930C4B1A6B42F010021A6393
:1023F8001B6B03F010030093009B4FF420630193C1
:10240800022302930123059301A90448FEF72EF93C
:10241800E4E700BF0000014000380240001002401D
:1024280010B596B000241294139414941594109433
:10243800119409940A940B940C940D940E940F948F
:102448002022214601A800F011F93248324B0360DE
:1024580040F2BF33436084600A23C360046144616F
:102468008461FEF7F5FE00283FD116A94FF480538A
:1024780041F8103D2748FEF7C9FF002838D1254804
:10248800FEF7FFFE002836D100231093119310A900
:102498002048FFF757F8002830D16023099300221D
:1024A8000A920B920C920D920E920F9209A919485A
:1024B800FEF732FF28BB042209A91648FEF72CFFB5
:1024C80010BB0023019302930393049305934FF4E5
:1024D80000520692089301A90E48FFF76FF8B0B9A9
:1024E8000C48FFF76FFF16B010BDFFF771FEBCE791
:1024F800FFF76EFEC3E7FFF76BFEC5E7FFF768FE61
:10250800CBE7FFF765FED6E7FFF762FED9E7FFF7EF
:102518005FFEE5E7C00100200000014008B50A4859
:102528000A4B03604FF41653436000238360C36073
:1025380003610C2242618361C361FFF7B9F900B9F5
:1025480008BDFFF745FEFBE77C0100200044004082
:1025580010B588B00023039304930593069307935B
:102568000268194B9A4201D008B010BD00240194AA
:1025780003F5FA331A6C42F400321A641A6C02F446
:1025880000320192019A02941A6B42F001021A6316
:102598001B6B03F001030293029B0C23039302239A
:1025A800049301230593032306930723079303A9A1
:1025B8000648FEF75BF8224621462620FDF7EAFF8B
:1025C8002620FEF71BF8CFE7004400400000024039
:1025D800DFF834D0002103E00C4B5B584350043142
:1025E8000B480C4B42189A42F6D30B4A02E00023E0
:1025F80042F8043B094B9A42F9D3FFF749FE00F031
:1026080011F8FFF7BBFD704700000220C426000840
:1026180000000020DC000020DC0000204002002038
:10262800FEE7000070B50D4E0D4CA41BA41000254C
:10263800A54209D10B4E0C4C00F020F8A41BA410A5
:102648000025A54205D170BD56F8253098470135BB
:10265800EEE756F8253098470135F2E7BC26000822
:10266800BC260008BC260008C02600080244034611
:10267800934200D1704703F8011BF9E7F8B500BF92
:10268800F8BC08BC9E467047F8B500BFF8BC08BC4B
:042698009E467047A3
:10269C000000000000000000010203040607080906
:0826AC0000000000010203041C
:0826B40054DBFF7F0100000070
:0426BC00BD01000854
:0426C0009901000874
:1026C4000100000010000000340001403800014007
:1026D4005354520A000000000000000000000000F3
:1026E40000000000000000000000000000000000E6
:1026F40000000000000000000000000000000000D6
:1027040000000000000000000000000000000000C5
:1027140000000000000000000000000000000000B5
:1027240000000000000000000000000000000000A5
:10273400000000004E4F54205354520A0000000081
:102744000000000000000000000000000000000085
:102754000000000000000000000000000000000075
:102764000000000000000000000000000000000065
:102774000000000000000000000000000000000055
:102784000000000000000000000000000000000045
:0C27940000000000000000000024F40021
:04000005080025D9F1
:00000001FF
