:020000040800F2
:1000000000000220AD2100085D1F00085F1F0008EE
:10001000611F0008631F0008651F00080000000042
:10002000000000000000000000000000671F000842
:10003000691F0008000000006B1F00086D1F00080A
:10004000FD210008FD210008FD210008FD21000818
:10005000FD210008FD210008FD210008FD21000808
:10006000FD210008FD210008FD210008FD210008F8
:10007000FD210008FD210008FD210008FD210008E8
:10008000FD210008FD210008FD21000800000000FE
:10009000000000000000000000000000FD2100083A
:1000A000FD210008FD210008FD210008FD210008B8
:1000B000751F0008FD210008FD210008FD21000832
:1000C000FD210008FD210008FD210008FD21000898
:1000D000FD210008FD210008851F00080000000028
:1000E000951F0008FD210008FD2100080000000008
:1000F000000000000000000000000000FD210008DA
:1001000000000000FD210008FD210008FD2100087D
:1001100000000000000000000000000000000000DF
:10012000FD210008FD210008FD210008FD21000837
:10013000FD21000800000000000000000000000099
:10014000000000000000000000000000FD21000889
:10015000FD210008FD210008FD210008FD21000807
:10016000FD210008FD210008000000000000000043
:10017000000000000000000000000000000000007F
:1001800000000000FD210008000000000000000049
:08019000FD210008FD2100081B
:1001A00010B5054C237833B9044B13B10448AFF3B1
:1001B00000800123237010BD3801002000000000E2
:1001C000F430000808B5034B1BB103490348AFF3F3
:1001D000008008BD000000003C010020F430000851
:1001E00053B94AB9002908BF00281CBF4FF0FF319E
:1001F0004FF0FF3000F072B9ADF1080C6DE904CE9C
:1002000000F006F8DDF804E0DDE9022304B07047F1
:100210002DE9F047089E04468846002B4BD18A42C0
:10022000154667D9B2FA82F24AB1C2F1200701FA43
:1002300002F320FA07F7954047EA030894404FEA93
:10024000154E230CB8FBFEF71FFA85FC0EFB178832
:1002500043EA084307FB0CF1994209D9EB1807F16F
:10026000FF3080F01B81994240F21881023F2B44FD
:100270005B1AA4B2B3FBFEF00EFB103344EA034456
:1002800000FB0CFCA44509D92C1900F1FF3380F0C8
:100290000781A44540F2048102382C4440EA07401B
:1002A000A4EB0C0400271EB1D4400023C6E9004390
:1002B0003946BDE8F0878B4209D9002E00F0EB806B
:1002C0000027C6E9000138463946BDE8F087B3FA91
:1002D00083F7002F47D18B4202D3824200F2FA808B
:1002E000841A61EB030301209846002EE0D0C6E992
:1002F0000048DDE702B9FFDEB2FA82F2002A40F0E0
:100300008F80491B4FEA154E1FFA85F80127B1FB74
:10031000FEFC230C0EFB1C1143EA014308FB0CF10D
:10032000994207D9EB180CF1FF3002D2994200F242
:10033000CD808446591AA3B2B1FBFEF00EFB101417
:1003400043EA044408FB00F8A04507D92C1900F142
:10035000FF3302D2A04500F2B6801846A4EB080491
:1003600040EA0C409FE7C7F1200CBB4022FA0CFE8C
:100370004EEA030E01FA07F420FA0CF521FA0CF309
:100380004FEA1E482543B3FBF8F92C0C08FB193340
:100390001FFA8EFA44EA034309FB0AF49C4202FA6C
:1003A00007F200FA07F10BD91EEB030309F1FF3046
:1003B00080F087809C4240F28480A9F10209734456
:1003C0001B1BADB2B3FBF8F008FB103345EA034446
:1003D00000FB0AFAA24508D91EEB040400F1FF3322
:1003E0006BD2A24569D90238744440EA0940A0FBA7
:1003F0000289A4EB0A044C45C2464B4654D351D063
:10040000002E69D0B1EB0A0564EB030404FA0CFC7E
:10041000FD40FC404CEA0505C6E90054002747E7CB
:10042000C2F1200320FA03F7954001FA02F021FA05
:1004300003F34FEA154E3843010CB3FBFEF71FFAE6
:1004400085F80EFB173341EA034107FB08F38B42A3
:1004500004FA02F407D9691807F1FF3C2FD28B4246
:100460002DD9023F2944CB1A81B2B3FBFEF00EFB1B
:10047000103341EA034100FB08F38B4207D96918A6
:1004800000F1FF3C17D28B4215D902382944C91A12
:1004900040EA07473BE73746304609E70746E7E6C5
:1004A0001846FBE64145ABD2B8EB020A69EB0E02F7
:1004B00001381346A4E76046E9E7184695E7674622
:1004C000D1E781467CE702382C4447E7ACF1020CC7
:1004D0002B442FE7384608E73746E9E6704700BF68
:1004E000034613F8012B002AFBD1181A0138704774
:1004F00001F0FF01102A2BDB10F0070F08D010F8D5
:10050000013B013A8B422DD010F0070F42B3F6D1D8
:10051000F0B441EA012141EA014122F007047FF0F1
:1005200000070023F0E80256083C85EA010586EA48
:10053000010685FA47F5A3FA87F586FA47F6A5FA84
:1005400087F68EB9EED1F0BC01F0FF0102F0070290
:1005500032B110F8013B013A83EA010313B1F8D13B
:100560000020704701387047002D06BF354603381C
:10057000073815F0010F07D1013015F4807F02BF55
:10058000013015F4C03F0130F0BC0138704700BFA6
:1005900010B504460E4B18784FF47A73B3FBF0F3A2
:1005A0000C4A1068B0FBF3F000F0AAF868B90F2C01
:1005B00001D901200AE0002221464FF0FF3000F06F
:1005C0005DF8034B5C60002000E0012010BD00BF1F
:1005D00000000020D000002008B50B4B1A6842F440
:1005E00000721A601A6842F480621A601A6842F453
:1005F00080721A60032000F02FF80020FFF7C8FF78
:1006000001F090FC002008BD003C0240034A116844
:10061000034B1B780B441360704700BF6801002038
:1006200000000020014B1868704700BF68010020DF
:1006300038B50446FFF7F6FF0546B4F1FF3F02D098
:10064000044B1B781C44FFF7EDFF401BA042FAD37C
:1006500038BD00BF00000020074AD36823F4E063E0
:100660001B041B0C000200F4E060184340F0BF6064
:1006700040F40030D060704700ED00E030B4174B1C
:10068000DB68C3F30223C3F10704042C28BF04244E
:100690001D1D062D18D9033B4FF0FF3505FA04F454
:1006A00021EA0401994005FA03F322EA03031943FE
:1006B00000280BDB0901C9B200F1604000F5614080
:1006C00080F8001330BC70470023E5E700F00F000E
:1006D0000901C9B2024B1954F4E700BF00ED00E074
:1006E00014ED00E0002807DB00F01F0240090123A1
:1006F0009340024A42F82030704700BF00E100E01A
:100700000138B0F1807F0AD2064B5860064AF021CA
:1007100082F823100020986007221A607047012099
:10072000704700BF10E000E000ED00E090F83530C9
:10073000DBB2022B03D080234365012070470523E1
:1007400080F835300268136823F00103136000203D
:100750007047000000230F2B00F2C580F0B583B076
:1007600039E0042200E00022AA403A4302345E4D00
:1007700045F824205D4A1468F24302EA04054F68F4
:1007800017F4803F01D046EA0405584C25606468A0
:1007900002EA04054F6817F4003F01D046EA040559
:1007A000524C6560A46802EA04054F6817F4801F84
:1007B00001D046EA04054D4CA560E46822404D682E
:1007C00015F4001F01D046EA0402484CE2600133F0
:1007D0000F2B00F2868001229A400C6804EA020680
:1007E000B242F4D14C68651E012D03D9112C01D001
:1007F000122C12D185685F000324BC4025EA040551
:10080000CC68BC402C438460456825EA02054C68EE
:10081000C4F300129A402A434260C4685F00032276
:10082000BA40D24314408D68BD402543C5604C6832
:10083000022C01D0122C13D1DD08083550F825E028
:1008400003F007044FEA840C0F2404FA0CF42EEA98
:10085000040E0C6904FA0CF444EA0E0440F8254036
:10086000046822404C6804F00304BC402243026048
:100870004A6812F0805FAAD0002201921C4A546C90
:1008800044F480445464526C02F480420192019A10
:100890009C08A51C144A52F8257003F00302950029
:1008A0000F22AA4027EA0207124A90423FF45BAFA8
:1008B00002F5806290420ED002F5806290420CD028
:1008C00002F5806290420AD002F5806290423FF4C5
:1008D00048AF072248E7012246E7022244E7032205
:1008E00042E703B0F0BD704700380140003C0140D2
:1008F000003802400000024012B9090481617047CB
:1009000081617047436931EA030301D08161704717
:10091000090481617047000008B5054B5B6903421B
:1009200000D108BD024B586101F01EF9F9E700BF84
:10093000003C0140002800F0E48170B582B004461C
:10094000036813F0010F3BD0A74B9B6803F00C0327
:10095000042B2CD0A44B9B6803F00C03082B21D054
:100960006368B3F5803F4FD0B3F5A02F52D09E4BB4
:100970001A6822F480321A601A6822F480221A60FF
:100980006368002B50D0FFF74DFE0546964B1B6861
:1009900013F4003F14D1FFF745FE401B6428F5D93E
:1009A0000320B3E1904B5B6813F4800FD8D08E4BDB
:1009B0001B6813F4003F03D06368002B00F0A38191
:1009C000236813F0020F55D0874B9B6813F00C0F70
:1009D0003ED0854B9B6803F00C03082B33D0E368B3
:1009E000002B68D0814B01221A60FFF71BFE0546E1
:1009F0007D4B1B6813F0020F54D1FFF713FE401B11
:100A00000228F5D9032081E1774A136843F4803343
:100A10001360B5E7744B1A6842F480221A601A68B2
:100A200042F480321A60ABE7FFF7FCFD05466E4BDF
:100A30001B6813F4003FC3D0FFF7F4FD401B64288C
:100A4000F5D9032062E1684B5B6813F4800FC6D1CF
:100A5000654B1B6813F0020F04D0E368012B01D033
:100A6000012053E1604A136823F0F803216943EA47
:100A7000C1031360236813F0080F40D0636963B3A8
:100A80005B4B01221A60FFF7CDFD0546564B5B6FAD
:100A900013F0020F33D1FFF7C5FD401B0228F5D933
:100AA000032033E1504A136823F0F803216943EA35
:100AB000C1031360DEE74D4B00221A60FFF7B2FD61
:100AC0000546494B1B6813F0020FD3D0FFF7AAFD70
:100AD000401B0228F5D9032018E1454B00221A607B
:100AE000FFF7A0FD0546404B5B6F13F0020F06D0E9
:100AF000FFF798FD401B0228F5D9032006E1236883
:100B000013F0040F79D0384B1B6C13F0805F33D196
:100B100000230193344B1A6C42F080521A641B6C10
:100B200003F080530193019B0125324B1B6813F4A2
:100B3000807F23D0A368012B34D0052B38D02A4BDB
:100B40001A6F22F001021A671A6F22F004021A6764
:100B5000A368002B36D0FFF765FD0646224B1B6FBE
:100B600013F0020F48D1FFF75DFD801B41F288337F
:100B70009842F3D90320C9E00025D6E71D4A13683F
:100B800043F480731360FFF74DFD0646194B1B6855
:100B900013F4807FCED1FFF745FD801B0228F5D9E5
:100BA0000320B3E0104A136F43F001031367CFE74C
:100BB0000D4B1A6F42F004021A671A6F42F00102DD
:100BC0001A67C5E7FFF72EFD0646074B1B6F13F0AC
:100BD000020F11D0FFF726FD801B41F288339842A7
:100BE000F3D9032092E000BF0038024000004742E2
:100BF000800E474200700040EDB9A369002B00F061
:100C00008480454A926802F00C02082A51D0022BD7
:100C100017D0424B00221A60FFF704FD04463E4BFA
:100C20001B6813F0007F42D0FFF7FCFC001B02287A
:100C3000F5D903206AE0384A136C23F0805313641B
:100C4000DBE7364B00221A60FFF7ECFC0546324B1F
:100C50001B6813F0007F06D0FFF7E4FC401B02285E
:100C6000F5D9032052E0E369226A1343626A43EA3A
:100C70008213A26A5208013A43EA0243E26A43EA53
:100C80000263254A5360254B01221A60FFF7CAFC14
:100C90000446214B1B6813F0007F06D1FFF7C2FC0E
:100CA000001B0228F5D9032030E000202EE00020B0
:100CB0002CE0012B2CD0184B9B6803F48001E269D7
:100CC000914201D0012021E003F03F02216A8A42D3
:100CD00001D001201AE0616A47F6C0721A408A42C8
:100CE00001D0012012E003F44032A16A8A4201D00F
:100CF00001200BE003F07063E26A93420AD0012006
:100D000004E001207047012000E0002002B070BD27
:100D10000120FBE70020F9E700380240600047426D
:100D2000324B9B6803F00C03042B5CD0082B01D0E2
:100D30002F4870472DE9F04B2C4B5A6802F03F02C8
:100D40005B6813F4800F2BD0284B5B68C3F38813C8
:100D50001E4600275C010025E41A65EB0705A90182
:100D600041EA9461A001001B61EB0501CB0043EA5D
:100D70005073C400A01943EB07014B0243EAD05360
:100D80004402204619460023FFF72AFA174B5B68F6
:100D9000C3F3014301335B00B0FBF3F0BDE8F08B1C
:100DA000124B5B68C3F388131E4600275C010025C5
:100DB000E41A65EB0705A90141EA9461A001001B53
:100DC00061EB0501CB0043EA5073C400A01943EB6B
:100DD00007018B0243EA9053840220461946002300
:100DE000FFF7FEF9D2E70348704700BF0038024022
:100DF0000024F40000127A00002800F09E8070B5F4
:100E00000446504B1B6803F00F038B4209D2CBB250
:100E10004C4A1370136803F00F038B4201D001207A
:100E200070BD236813F0020F17D013F0040F04D025
:100E3000454A936843F4E0539360236813F0080F26
:100E400004D0414A936843F4604393603E4A9368F8
:100E500023F0F003A068034393600D46236813F06A
:100E6000010F32D06368012B21D09A1E012A25D9A7
:100E7000354A126812F0020F61D033498A6822F0B5
:100E8000030213438B60FFF7CDFB06462E4B9B6896
:100E900003F00C036268B3EB820F16D0FFF7C2FBBE
:100EA000801B41F288339842F0D90320B8E7264AE4
:100EB000126812F4003FE0D10120B1E7224A126823
:100EC00012F0007FD9D10120AAE71E4B1B6803F066
:100ED0000F03AB4209D9EAB21A4B1A701B6803F030
:100EE0000F03AB4201D001209AE7236813F0040FEF
:100EF00006D0154A936823F4E053E1680B439360EE
:100F0000236813F0080F07D00F4A936823F4604357
:100F1000216943EAC1039360FFF702FF0A4B9B6814
:100F2000C3F30313094AD35CD840094B1860094B3B
:100F30001868FFF72DFB002072E7012070470120A1
:100F40006EE700BF003C0240003802400C31000850
:100F5000D000002004000020014B1868704700BF3B
:100F6000D000002008B5FFF7F7FF044B9B68C3F3E0
:100F70008223034AD35CD84008BD00BF003802403A
:100F80001C31000808B5FFF7E7FF044B9B68C3F36B
:100F90004233034AD35CD84008BD00BF003802404A
:100FA0001C31000810B4036A046A24F001040462CE
:100FB000846924F0F00444EA021223F00A030B438C
:100FC000826103625DF8044B704710B4036A23F03A
:100FD000100303628469036A24F4704444EA023211
:100FE00023F0A00343EA0113826103625DF8044B1E
:100FF0007047836823F07003194341F00701816053
:1010000070477047704770477047704710B5044687
:1010100003681A6912F0020F11D0DA6812F0020F99
:101020000DD06FF002021A610123037703689B69F8
:1010300013F0030F70D0FFF7E6FF00232377236838
:101040001A6912F0040F12D0DA6812F0040F0ED0F1
:101050006FF004021A610223237723689B6913F45B
:10106000407F5FD02046FFF7CEFF00232377236821
:101070001A6912F0080F12D0DA6812F0080F0ED0B9
:101080006FF008021A61042323772368DB6913F0E9
:10109000030F4ED02046FFF7B6FF002323772368C7
:1010A0001A6912F0100F12D0DA6812F0100F0ED079
:1010B0006FF010021A61082323772368DB6913F4A9
:1010C000407F3DD02046FFF79EFF00232377236813
:1010D0001A6912F0010F03D0DA6812F0010F36D14D
:1010E00023681A6912F0800F03D0DA6812F0800FBB
:1010F00034D123681A6912F0400F03D0DA6812F075
:10110000400F32D123681A6912F0200F03D0DA6839
:1011100012F0200F30D110BDFFF774FF2046FFF70B
:1011200073FF8AE72046FFF76DFF2046FFF76CFF4D
:101130009BE72046FFF766FF2046FFF765FFACE719
:101140002046FFF75FFF2046FFF75EFFBDE76FF029
:1011500001021A612046FFF754FFC1E76FF08002D9
:101160001A61204600F02DF9C3E76FF040021A61C2
:101170002046FFF74AFFC5E76FF020021A612046BC
:1011800000F01EF9C7E700000368254A90420ED020
:10119000B0F1804F0BD0A2F57C42904207D002F50F
:1011A0008062904203D002F58062904203D123F026
:1011B00070034A6813431A4A90421AD0B0F1804F24
:1011C00017D0A2F57C42904213D002F58062904283
:1011D0000FD002F5806290420BD002F59A32904215
:1011E00007D002F58062904203D002F580629042FF
:1011F00003D123F44073CA68134323F080034A6980
:10120000134303608B68C3620B688362044B98428C
:1012100002D00123436170470B690363F9E700BF04
:1012200000000140A8B110B5044690F83D305BB114
:10123000022384F83D30211D2068FFF7A5FF01231C
:1012400084F83D30002010BD80F83C3000F036FFBF
:10125000EEE70120704710B4846824F47F4442EA2A
:1012600003230B43234383605DF8044B704790F8DE
:101270003C30012B66D010B50446012380F83C3089
:10128000022380F83D300268936823F47F4323F003
:10129000770393600B68402B4AD013D9602B3DD065
:1012A0001ED9702B28D0B3F5005F30D1CB684A68C7
:1012B00089680068FFF7CFFF2268936843F4804392
:1012C000936024E0102B06D004D9202B03D0302BC0
:1012D00001D01CE0DBB919462068FFF78AFE16E052
:1012E000502B14D1CA6849680068FFF75BFE502193
:1012F0002068FFF77EFE0AE0CB684A6889680068CC
:10130000FFF7A9FF2268936843F0770393600123F6
:1013100084F83D30002084F83C0010BDCA6849685C
:101320000068FFF752FE60212068FFF762FEEEE7DB
:10133000CA6849680068FFF735FE40212068FFF75A
:1013400058FEE4E70220704790F83C30012B33D080
:1013500030B4012380F83C30022380F83D3003682C
:101360005C689D6824F070040A6822435A60036830
:10137000124A934212D0B3F1804F0FD0A2F57C42B3
:1013800093420BD002F58062934207D002F580624F
:10139000934203D002F59A32934204D125F080059E
:1013A0004A6815439D60012380F83D30002380F892
:1013B0003C30184630BC70470220704700000140A6
:1013C000704770470268D36823F49073D360026853
:1013D000536923F001035361202380F83A307047AA
:1013E00090F83930DBB2212B2AD18368B3F5805FC6
:1013F00016D0036A5A1C02621A7803685A60C38CBA
:10140000013B9BB2C384EBB90268D36823F080032D
:10141000D3600268D36843F04003D3600020704774
:10142000036A1B880268C3F30803536003691BB98E
:10143000036A02330362E2E7036A01330362DEE711
:1014400002207047002070472DE9F04B04460268E7
:10145000136923F44053C1680B4313618368026925
:10146000134342691343C2691A430168CB6823F4EA
:10147000164323F00C031343CB600268536923F433
:10148000407381690B435361C369B3F5004F3BD08F
:101490000368714A934200F0AB8002F58062934288
:1014A00000F0A680FFF75EFD4FF00009061849EB3B
:1014B000090716EB000B47EB090C4FEACC0343EA94
:1014C0005B734FEACB0293469C4663689A009B0F7E
:1014D00010EB0B0049EB0C01FEF782FE5F4DA5FB04
:1014E00000325109642202FB110213013233A5FBC1
:1014F00003235B0903F0F00202EB011203F00F0378
:10150000216813448B60A4E00368534A934239D0A6
:1015100002F58062934235D0FFF724FD83464FF0F9
:10152000000C06184CEB0C0716EB000847EB0C09F7
:101530004FEAC90343EA58734FEAC80290469946F6
:1015400062680021921841EB01031BEB08004CEB91
:101550000901FEF745FE414DA5FB00325109642209
:1015600002FB1102D3003233A5FB03235B095A00AF
:1015700002F4F87202EB011203F00703216813442E
:101580008B6066E0FFF7FEFC80464FF0000906180E
:1015900049EB090716EB000B47EB090C4FEACC03AC
:1015A00043EA5B734FEACB0293469C466268002194
:1015B000921841EB010318EB0B0049EB0C01FEF70D
:1015C0000FFE264DA5FB00325109642202FB1102D9
:1015D000D3003233A5FB03235B095A0002F4F872EF
:1015E00002EB011203F00703216813448B6030E023
:1015F000FFF7C8FC4FF00009061849EB090716EB86
:10160000000B47EB090C4FEACC0343EA5B734FEA4C
:10161000CB0293469C4663689A009B0F10EB0B002D
:1016200049EB0C01FEF7DCFD0C4DA5FB0032510926
:10163000642202FB110213013233A5FB03235B0971
:1016400003F0F00202EB011203F00F0321681344D0
:101650008B60BDE8F08B00BF001001401F85EB518F
:101660002DE9F04105460F4616469846069C2B6824
:101670001B6837EA03030CBF01230023B3421DD1CB
:10168000B4F1FF3FF3D02CB1FEF7CCFFA0EB080084
:10169000A042ECD92A68D36823F4D073D3602A68B7
:1016A000536923F001035361202385F8393085F80D
:1016B0003A30002385F83830032000E00020BDE8F0
:1016C000F08158B310B5044690F839300BB3242399
:1016D00084F839302268D36823F40053D36020465D
:1016E000FFF7B2FE2268136923F490431361226866
:1016F000536923F02A0353612268D36843F40053EB
:10170000D3600020E063202384F8393084F83A3035
:1017100010BD80F8383000F009FDD8E7012070478F
:101720002DE9F04383B01E4690F83930DBB2202B10
:1017300056D104460D469046002956D0002A56D070
:1017400090F83830012B54D0012380F838304FF016
:101750000009C0F83C90212380F83930FEF762FF81
:101760000746A4F82480A4F8268084F8389010E076
:1017700000963B46002280212046FFF771FF00289B
:1017800039D12B882268C3F3080353602369C3B996
:101790000235E38C9BB2B3B1E38C013B9BB2E38493
:1017A000A368B3F5805FE3D000963B46002280211A
:1017B0002046FFF755FF00BB2A7823685A600135A1
:1017C000E7E70135E5E700963B4600224021204649
:1017D000FFF746FF034690B9202284F8392000E045
:1017E0000223184603B0BDE8F0830123F9E7012383
:1017F000F7E70223F5E70323F3E70323F1E70323E6
:10180000EFE790F83A30DBB2202B20D109B312B3C6
:1018100090F83830012B20D081628285C285002368
:10182000C363222280F83A2080F838300168CA6801
:1018300042F48072CA6001684A6942F001024A615A
:101840000168CA6842F02002CA6018467047022048
:101850007047012070470120704702207047704791
:1018600008B50168CB6823F04003CB60202380F8E3
:101870003930FFF7F4FF002008BD08B590F83A3082
:10188000DBB2222B45D18368B3F5805F0ED00369AC
:1018900003BB03685A68836A591C81621A70C38D3E
:1018A000013B9BB2C385F3B1002033E0826A036938
:1018B00043B903685B68C3F308031380836A023388
:1018C0008362ECE703685B68DBB21380836A0133F1
:1018D0008362E4E703685B68826A511C816203F0FB
:1018E0007F031370DBE70268D36823F02003D36023
:1018F0000268D36823F48073D3600268536923F0CD
:1019000001035361202380F83A3000F0BBF9002036
:1019100000E0022008BD704710B504460268136855
:10192000D168526913F00F0005D113F0200F02D0D7
:1019300011F0200F56D100286AD012F0010202D116
:1019400011F4907F64D013F0010F06D011F4807F62
:1019500003D0E06B40F00100E06313F0040F04D00B
:101960001AB1E06B40F00200E06313F0020F04D004
:101970001AB1E06B40F00400E06313F0080F07D0E9
:1019800011F0200F00D11AB1E26B42F00802E263BD
:10199000E26B002A48D013F0200F02D011F0200F84
:1019A00024D123685B6903F04003E26B12F0080F57
:1019B00000D13BB32046FFF705FD23685A6912F0BA
:1019C000400F1BD05A6922F040025A61636B8BB101
:1019D0001A4A1A65606BFEF7A9FE28B3606B036DA7
:1019E000984721E02046FFF748FF1DE02046FFF71B
:1019F00044FFD6E72046FFF78EFF15E02046FFF7AD
:101A00008AFF11E02046FFF786FF0023E3630BE027
:101A100013F0800F02D011F0800F06D113F0400FA9
:101A200002D011F0400F04D110BD2046FFF7D8FCC2
:101A3000FAE72046FFF714FFF6E700BF411A000857
:101A400008B5806B0023C385C384FFF764FF08BD1E
:101A5000F0B58BB00024059406940794089409947B
:101A600001942E4B1A6B42F004021A631A6B02F0B7
:101A700004020192019A02941A6B42F080021A63E6
:101A80001A6B02F080020292029A03941A6B42F0DF
:101A900001021A631A6B02F001020392039A049482
:101AA0001A6B42F008021A631B6B03F008030493DD
:101AB000049B1B4F224620213846FEF71DFF194D7F
:101AC00022464FF472412846FEF716FF2023059365
:101AD000012606960794089605A93846FEF73AFEB1
:101AE0004FF47243059306960794089405A9284677
:101AF000FEF730FE4FF4806305930B4B069307947B
:101B000005A92846FEF726FE224621462820FEF794
:101B1000B5FD2820FEF7E6FD0BB0F0BD0038024011
:101B200000000240000C02400000311070B5FFF7C9
:101B3000F7F80B4EA6FB0036B60CFEF773FD044615
:101B4000084B9D68FEF76EFDA042F6D14FF47A7007
:101B500000FB06F35D1BB5FBF6F600FB046070BDF1
:101B600083DE1B4310E000E0B0F5806F00D07047CB
:101B700008B5104B1B78DBB2022B05D0032B0BD022
:101B80000C4B08221A7006E0FFF7D0FF0A4B1860D2
:101B9000084B03221A7008BDFFF7C8FF074B1860F7
:101BA0001B68054A12689B1A054A1360014B0722FD
:101BB0001A70F0E7540100207C0100207801002019
:101BC0007001002010B50D4C00224FF4004120465A
:101BD000FEF792FE00224FF400512046FEF78CFEE5
:101BE00000224FF480412046FEF786FE00224FF48B
:101BF00080512046FEF780FE10BD00BF000C024061
:101C000010B5FFF7DFFF0C4C2046FEF769FC64239C
:101C100082B221460948FFF783FD094C01224FF4A7
:101C200000412046FEF768FE01224FF48041204625
:101C3000FEF762FE10BD00BF08000020C0010020BA
:101C4000000C024010B5FFF7BDFF0B4C2046FEF71D
:101C500047FC642382B221460848FFF761FD084C27
:101C60004FF480412046FEF74DFE4FF48051204650
:101C7000FEF748FE10BD00BF08000020C001002094
:101C8000000C024038B50268384B9A4205D0012258
:101C900037493848FFF7B5FD38BD354B1B78312B38
:101CA00021D0334B1B78322B3AD0314B1B78332B5E
:101CB00046D02F4B1B78342BE9D1FFF783FF2E4CF6
:101CC0002046FEF70DFC642382B221462948FFF727
:101CD00027FD01224FF400412848FEF70DFE0023A6
:101CE00084F86330D3E7FFF76DFF234C04F16405FC
:101CF0002846FEF7F5FB642382B229461D48FFF70C
:101D00000FFD1E4D4FF400412846FEF7FBFD4FF43A
:101D100000512846FEF7F6FD002384F8C730C0E7DF
:101D2000FFF750FF144C2046FEF7DAFB642382B223
:101D300021461048FFF7F4FC002384F86330B4E731
:101D4000FFF740FF0C4C2046FEF7CAFB642382B22B
:101D500021460848FFF7E4FC01224FF400510748F0
:101D6000FEF7CAFD002384F86330A2E70044004078
:101D700075010020C001002008000020000C024076
:101D800030B595B03022002108A800F063FA002495
:101D90000394049405940694079401941B4B1A6CC5
:101DA00042F080521A641B6C03F080530193019B34
:101DB0000294174B1A6842F440421A601B6803F4FD
:101DC00040430293029B012308934FF4A0230993FD
:101DD00002250E954FF480030F9304231093C02225
:101DE000119212930823139308A8FEF7A3FD0F2363
:101DF0000393049505944FF4A0530693079403218D
:101E000003A8FEF7F9FF15B030BD00BF003802404F
:101E10000070004010B5FEF7DFFBFFF7B1FFFFF7E2
:101E200017FE00F011F900F067F90122324933483A
:101E3000FFF7E7FC0CE0324800F088FA08E0314890
:101E400000F084FA04E0304800F080FA1D2C42D9FA
:101E50002E4C01224FF400712046FEF74DFD10205C
:101E6000FEF7E6FB00224FF400712046FEF744FD2A
:101E7000274B02221A70264B1B78DBB2022B04D1AF
:101E8000234B1B78DBB2082BF5D1214B1B78DBB23F
:101E9000082BD0D01E4B1B78DBB2032B04D11C4B7C
:101EA0001B78DBB2082BF5D1194B1B78DBB2082B62
:101EB000C5D0184B1C68184AA2FB042464091A6890
:101EC0004EF660239A42BED8124B19682246134838
:101ED00000F0C8F9BAE7FFF7B5FEC820FEF7A8FB87
:101EE000FFF78EFEFA20FEF7A3FBFFF76BFE322012
:101EF000FEF79EFBACE700BF75010020C00100208B
:101F00002431000858310008AC310008000C0240B0
:101F1000540100207001002009CB3D8D8C31000858
:101F20007047000082B0002100910B4B5A6C42F4C4
:101F300080425A645A6C02F480420092009A0191E5
:101F40001A6C42F080521A641B6C03F080530193A8
:101F5000019B02B0704700BF003802407047FEE7A7
:101F6000FEE7FEE7FEE770477047704708B5FEF7EB
:101F70004DFB08BD08B50248FFF748F808BD00BF93
:101F80008001002008B50248FFF7C6FC08BD00BF6D
:101F9000C001002008B54FF48060FEF7BDFC08BD0D
:101FA00070B50D461646002404E0AFF3008028709B
:101FB00001340135B442F8DB304670BD70B51646C9
:101FC000002405E04D1C0878AFF300800134294659
:101FD000B442F7DB304670BD08B503460B4A1268C1
:101FE00042B10A4A106803446A46934206D8074A37
:101FF000136008BD054A06491160F2E700F000F9D8
:102000000C2303604FF0FF30F3E700BF58010020BE
:10201000080200204FF0FF3070474FF400534B6030
:10202000002070470120704700207047054BD3F80F
:10203000882042F47002C3F888204FF000629A6052
:10204000704700BF00ED00E000B587B000230293A9
:102050000393049305930093019317484FF0804234
:10206000026048F69F42426083604FF47A62C26029
:1020700003618361FFF7D6F8A0B906A94FF4805336
:1020800041F8103D0C48FFF7F2F870B92023009397
:102090000023019369460848FFF756F940B907B095
:1020A0005DF804FBFFF73CFFE7E7FFF739FFEDE7DB
:1020B000FFF736FFF3E700BF800100200368B3F1AC
:1020C000804F00D0704700B583B00021019103F527
:1020D0000E331A6C42F001021A641B6C03F0010308
:1020E0000193019B0A461C20FEF7C8FA1C20FEF74C
:1020F000F9FA03B05DF804FB08B50A480A4B03601F
:102100004FF41653436000238360C36003610C22C5
:1021100042618361C361FFF7D4FA00B908BDFFF7DC
:10212000FFFEFBE7C00100200044004010B588B06E
:102130000023039304930593069307930268194BB6
:102140009A4201D008B010BD0024019403F5FA337F
:102150001A6C42F400321A641A6C02F400320192D2
:10216000019A02941A6B42F001021A631B6B03F08E
:1021700001030293029B0C23039302230493012384
:102180000593032306930723079303A90648FEF745
:10219000E1FA224621462620FEF770FA2620FEF7B5
:1021A000A1FACFE70044004000000240DFF834D03D
:1021B000002103E00C4B5B58435004310B480C4B9F
:1021C00042189A42F6D30B4A02E0002342F8043B3D
:1021D000094B9A42F9D3FFF729FF00F017F8FFF7F0
:1021E00019FE7047000002205C3200080000002049
:1021F000380100203801002004020020FEE7000022
:10220000014B1868704700BFD400002070B50D4E18
:102210000D4CA41BA4100025A54209D10B4E0C4C5B
:1022200000F068FFA41BA4100025A54205D170BDD5
:1022300056F8253098470135EEE756F8253098478F
:102240000135F2E7543200085432000854320008D5
:102250005832000802440346934200D1704703F805
:10226000011BF9E70FB40A4B13B51C6824B1A3692D
:1022700013B9204600F022FA05AB049AA168019335
:10228000204600F0DBFB02B0BDE8104004B0704710
:10229000D400002070B50E46054618B183690BB90D
:1022A00000F00CFAAB69AC6813B9284600F006FAE6
:1022B000234B9C4217D16C68A3891B071DD523694A
:1022C000DBB1013EA36816F8011F013BA360E9B929
:1022D000002B2EDA22460A21284600F03FF8013072
:1022E00011D00A2011E0174B9C4201D1AC68E3E702
:1022F000154B9C4208BFEC68DEE72146284600F0FB
:102300007FF80028DDD04FF0FF3070BD002B04DADD
:10231000A2699A4206DC0A2904D023685A1C22606A
:102320001970CFE72246284600F018F80130C9D1CD
:10233000E9E723680A205A1C22601870E5E700BF0D
:10234000D8310008F8310008B8310008024B0146C6
:102350001868FFF79FBF00BFD4000020F8B50E46F5
:102360001446054618B183690BB900F0A7F9214B53
:102370009C422AD16C68A369A360A3891A072ED551
:10238000236963B323692068C01A6369F6B2834284
:10239000374604DC2146284600F026F928BBA3680E
:1023A000013BA36023685A1C22601E7063690130E0
:1023B000834204D0A389DB0719D50A2E17D1214601
:1023C000284600F011F990B10FE00B4B9C4201D16F
:1023D000AC68D0E7094B9C4208BFEC68CBE72146CC
:1023E000284600F00DF80028CCD04FF0FF373846D3
:1023F000F8BD00BFD8310008F8310008B831000836
:10240000324B70B51D6806460C4625B1AB6913B951
:10241000284600F053F92E4B9C420FD16C68B4F95A
:102420000C309AB215072CD4D00611D40922326090
:1024300043F04003A3814FF0FF303EE0254B9C4228
:1024400001D1AC68EBE7244B9C4208BFEC68E6E79F
:10245000510712D5616B41B104F14403994202D096
:10246000304600F019FA00236363A38923F02403A4
:10247000A3810023636023692360A38943F00803D9
:10248000A38123694BB9A38903F42073B3F5007FBB
:1024900003D02146304600F0BFF9A28912F00103B3
:1024A0000CD00023A36063695B42A361236953B925
:1024B000B4F90C3013F08000BAD170BD920758BF48
:1024C0006369A360F2E70020F7E700BFD4000020B3
:1024D000D8310008F8310008B83100088A892DE9A0
:1024E000F041054610070C4658D44B68002B05DC1C
:1024F0000B6C002B02DC0020BDE8F081E66A002EA8
:10250000F9D0002312F480522F68216A2B6032D058
:10251000606DA3895A0705D56368C01A636B0BB158
:10252000236CC01A00230246E66A216A2846B04797
:10253000431CA38906D129681D2948D8294ACA40C5
:10254000D60744D500226260D9042269226004D5EE
:10255000421C01D12B6803B96065616B2F600029B3
:10256000C9D004F14403994202D0284600F094F9FE
:1025700000206063C0E701232846B047411CC8D152
:102580002B68002BC5D01D2B01D0162B01D12F603D
:10259000B1E7A38943F04003A381ADE70F69002FA2
:1025A000A9D093070E6808BF4B690F6018BF0023BE
:1025B000A6EB07088B60B8F1000F9CDD43463A4656
:1025C000216AA66A2846B047002806DCA38943F0A2
:1025D0004003A3814FF0FF308EE70744A8EB0008CB
:1025E000E9E700BF0100402038B50B6905460C46FD
:1025F000DBB118B183690BB900F060F80C4B9C4259
:1026000009D16C68B4F90C307BB121462846BDE88D
:102610003840FFF763BF074B9C4201D1AC68F1E73C
:10262000054B9C4208BFEC68ECE7002038BD00BFBA
:10263000D8310008F8310008B8310008002310B57F
:102640000446C0E90033836081814366C281C0E9EA
:1026500004338361194608225C30FFF7FBFD054B0C
:102660006362054BA362054BE362054B246223635F
:1026700010BD00BF992F0008BB2F0008F32F0008E2
:1026800017300008014900F085B800BFE9250008AF
:1026900070B54A1E682555430E4605F1740100F0D9
:1026A00049F9044640B10021C0E900160C30A06091
:1026B00005F16802FFF7CEFD204670BD836910B5B5
:1026C000044633BBC0E912330365124B124A1B6840
:1026D0008262984204BF0123836100F01FF86060AA
:1026E000204600F01BF8A060204600F017F80022FA
:1026F000E06004216068FFF7A1FF01220921A068C2
:10270000FFF79CFF02221221E068FFF797FF0123E9
:10271000A36110BDB431000885260008F8B51B4B35
:102720001E68B369074613B93046FFF7C7FF48363E
:10273000D6E90134013B03D5336833B13668F7E796
:10274000B4F90C506DB16834F4E704213846FFF752
:102750009FFF30600028F1D10C233B6004462046E7
:10276000F8BD0B4B6566C4E90055A560C4E90335A7
:10277000C4E905550822294604F15C00FFF76AFD0B
:10278000C4E90D55C4E91255E9E700BFB4310008AA
:102790000100FFFF2DE9F8438046894600F1480417
:1027A000002614B93046BDE8F883D4E90175013F2D
:1027B00001D52468F5E7AB89012B07D9B5F90E30AF
:1027C000013303D029464046C84706436835EEE743
:1027D00070B50E46B1F90E10002996B014461D468C
:1027E00007DA00232B60B3891A0610D44FF48063F4
:1027F0000EE06A4600F036FC0028F2DB019A02F493
:102800007042A2F500535A425A412A60EEE7402333
:102810000020236016B070BD8B8973B59D070646F6
:102820000C4607D504F1470323602361012363614C
:1028300002B070BD01AB6A46FFF7CAFF00990546BA
:10284000304600F077F848B9B4F90C309A05EFD467
:1028500023F0030343F00203A381E3E70D4BB362CC
:10286000A389206043F08003A381009B6361019BE7
:1028700020615BB1B4F90E10304600F005FC28B1C0
:10288000A38923F0030343F00103A381A3891D431C
:10289000A581CDE78526000838B50546002945D035
:1028A00051F8043C0C1F002BB8BFE41800F00EFCDC
:1028B0001F4A1368104633B9636014602846BDE8A8
:1028C000384000F004BCA3420CD92168621893423E
:1028D00004BF1A685B68636004BF5218226004601A
:1028E000ECE713465A680AB1A242FAD91968581897
:1028F000A0420BD120680144581882421960DDD1F2
:10290000106852685A6001441960D7E702D90C2355
:102910002B60D3E7206821188A4204BF11685268EF
:10292000626004BF091821605C60C7E738BD00BF62
:102930006001002070B5CD1C25F0030508350C2D75
:1029400038BF0C25002D064601DBA94203D90C2314
:102950003360002070BD00F0B9FB214A14682146A5
:1029600091B9204C23681BB9304600F005FB20606C
:102970002946304600F000FB431C24D10C23336071
:10298000304600F0A4FBE4E70B685B1B18D40B2B6C
:102990000FD90B60CD50CC18304600F098FB04F1F5
:1029A0000B00231D20F00700C31AD3D05A42E25077
:1029B000D0E78C424B6816BF636013600C46EBE7B0
:1029C0000C464968CCE7C41C24F00304A04205D09F
:1029D000211A304600F0D0FA0130CFD02560DBE775
:1029E00060010020640100209368013B002B10B4BB
:1029F000936008DA9469A34201DB0A2903D15DF8E8
:102A0000044BFFF7ABBC1368581C106019700846E4
:102A10005DF8044B7047F8B506460F461446D518C6
:102A2000AC4201D1002007E03A4614F8011B3046C1
:102A3000FFF7DAFF431CF3D1F8BD00002DE9F04F9A
:102A40000C469DB017461D46064618B183690BB962
:102A5000FFF734FE7C4B9C4258D17468A389180759
:102A60005ED52369002B5BD00023099320238DF8CA
:102A7000293030238DF82A3003954FF0010BB846EA
:102A8000454615F8013B0BB1252B54D1B8EB070A8D
:102A90000BD053463A4621463046FFF7BCFF013083
:102AA00000F0C280099B5344099398F80030002B32
:102AB00000F0BA8000234FF0FF32CDE905230493E4
:102AC00007938DF853301A93A846052218F8011B76
:102AD0005E48FDF70DFD049B78BBD90644BF20225C
:102AE0008DF853201A0744BF2B228DF853202A78E3
:102AF0002A2A2AD0079AA84600200A25414611F81A
:102B0000013B303B092B69D960B324E0504B9C4218
:102B100001D1B468A2E74F4B9C4208BFF4689DE71F
:102B200021463046FFF76CFC00289DD04FF0FF3067
:102B30001DB0BDE8F08FA846A2E7444A801A0BFA00
:102B400000F0184304904546BEE7039A111D126831
:102B50000391002A01DB079204E0524243F0020392
:102B60000792049398F800302E2B0ED198F801307C
:102B70002A2B38D1039B1A1D1B680392002BB8BF68
:102B80004FF0FF3308F102080593334D98F8001019
:102B900003222846FDF7ACFC40B14023401B03FA5A
:102BA00000F0049B034308F10108049398F8001017
:102BB0002A488DF82810062208F10107FDF798FC35
:102BC000002837D0264B1BBB039B073323F007039A
:102BD00008330393099B4B44099350E705FB0232EA
:102BE000012088468AE7002308F101080593194669
:102BF0000A25404610F8012B303A092A03D9002B48
:102C0000C3D00591C1E705FB012101238046F0E710
:102C100003AB00932246134B04A93046AFF3008068
:102C2000B0F1FF3F8146D5D1A3895B063FF57EAF6A
:102C300009987DE703AB009322460A4B04A930466E
:102C400000F088F8ECE700BFD8310008183200081F
:102C5000F8310008B83100081E320008223200089E
:102C600000000000172A00082DE9F04791461F4692
:102C70008A680B69DDF820809342B8BF1346C9F813
:102C8000003091F8432006460C4612B10133C9F8D2
:102C900000302368990642BFD9F800300233C9F8E2
:102CA0000030256815F0060507D104F1190AE3681C
:102CB000D9F800209B1AAB4228DC94F843302268F4
:102CC000003318BF012392062DD404F14302394684
:102CD0003046C047013020D02368E568D9F800208D
:102CE00003F00603042B08BFAD1AA36822690CBFCA
:102CF00025EAE57500259342C4BF9B1AED184FF0F5
:102D000000091A344D451AD1002008E0012352462B
:102D100039463046C047013003D14FF0FF30BDE89F
:102D2000F0870135C3E7E1185A1C302081F84300D1
:102D3000224494F8451082F843100233C5E701237A
:102D4000224639463046C0470130E6D009F1010934
:102D5000D8E700002DE9F04301F1430C0C46097E51
:102D600085B06E291746064698460C9A00F0B38047
:102D700022D8632936D00AD8002900F0B980582912
:102D800000F0838004F1420584F8421032E06429A7
:102D900001D06929F6D120681368050603F1040102
:102DA0002AD51B681160002B03DA2D225B4284F8C0
:102DB00043206F480A2239E0732900F09D8008D82B
:102DC0006F2920D07029DDD1236843F020032360D0
:102DD00003E0752917D07829D4D1782384F84530B9
:102DE000644855E01368191D1B68116004F1420521
:102DF00084F8423001238CE01B68116010F0400F12
:102E000018BF1BB2CFE713682568181D106028068D
:102E100001D51B6802E06806FBD51B8854486F2962
:102E200014BF0A220822002184F843106568A560B7
:102E3000002DC0F29580216821F004012160002B53
:102E40003DD1002D40F08E806546082A0BD12368C5
:102E5000DB0708D5236962689A42DEBF302305F894
:102E6000013C05F1FF35ACEB05032361CDF8008093
:102E70003B4603AA21463046FFF7F6FE01304DD10E
:102E80004FF0FF3005B0BDE8F083394884F84510B5
:102E9000136821681D1D1B6815600A060BD5CA073B
:102EA00044BF41F0200121601BB9226822F02002BA
:102EB00022601022B7E74D0648BF9BB2EFE7654698
:102EC000B3FBF2F102FB1133C35C05F8013D0B4685
:102ED0000029F5D1B9E7136825686169181D1060EC
:102EE00028061B6801D5196002E06A06FBD5198027
:102EF000002323616546B9E71368191D11601D6839
:102F0000626800212846FDF7F3FA08B1401B6060B3
:102F100063682361002384F84330A7E723692A46C6
:102F200039463046C0470130AAD023689B0713D4E6
:102F3000E068039B9842B8BF1846A3E701234A46BE
:102F400039463046C04701309AD00135E368039ACC
:102F50009B1AAB42F2DCEBE7002504F11909F5E717
:102F6000002BACD1037884F8423004F142056CE7C1
:102F7000293200083A32000838B5064C00230546CD
:102F800008462360FFF728F8431C02D1236803B1E9
:102F90002B6038BD0002002010B50C46B1F90E10B0
:102FA00000F096F80028ABBF636DA3891B1823F4CB
:102FB0008053ACBF6365A38110BD2DE9F0411F466E
:102FC0008B89DB0505460C46164605D502230022F3
:102FD000B1F90E1000F068F8A389B4F90E1023F4CB
:102FE0008053A38132463B462846BDE8F04100F0BD
:102FF00017B810B50C46B1F90E1000F055F8431C87
:10300000A38915BF606523F4805343F48053A381E3
:1030100018BFA38110BDB1F90E1000F013B8000065
:1030200038B5074C054608461146002222601A466C
:10303000FEF7C4FF431C02D1236803B12B6038BDE7
:103040000002002038B5064C0023054608462360E0
:10305000FEF7E0FF431C02D1236803B12B6038BDAB
:103060000002002038B5074C0023054608461146EB
:103070002360FEF7D2FF431C02D1236803B12B600B
:1030800038BD00BF0002002038B5064C00230546BD
:1030900008462360FEF7C6FF431C02D1236803B134
:1030A0002B6038BD0002002038B5074C05460846A5
:1030B0001146002222601A46FEF7B6FF431C02D1D9
:1030C000236803B12B6038BD0002002070477047B1
:1030D00038B5074C054608461146002222601A46BC
:1030E000FEF75EFF431C02D1236803B12B6038BD9D
:1030F00000020020F8B500BFF8BC08BC9E4670472F
:0C310000F8B500BFF8BC08BC9E46704744
:10310C00000000000000000001020304060708098B
:10311C000000000001020304556E6578706563744D
:10312C006564206572726F72207768696C652077B0
:10313C00616974696E6720666F72204543484F2041
:10314C00746F2073746172742E000000556E657874
:10315C00706563746564206572726F72207768693C
:10316C006C652077616974696E6720666F722045A3
:10317C0043484F20746F2066696E6973682E000097
:10318C0054696D653A20256C752075732C20646923
:10319C007374616E63653A20256C7520636D0A004B
:1031AC004552524F52200000D80000200000000071
:1031BC000000000000000000000000000000000003
:1031CC0000000000000000000000000000000000F3
:1031DC0000000000000000000000000000000000E3
:1031EC0000000000000000000000000000000000D3
:1031FC0000000000000000000000000000000000C3
:10320C00000000000000000000000000232D302B07
:10321C002000686C4C0065666745464700303132CB
:10322C003334353637383941424344454600303122
:10323C003233343536373839616263646566000081
:08324C00C4CFFF7F0100000068
:04325400C5010008A8
:04325800A1010008C8
:10325C0001000000100000004E4F54205354520A3D
:10326C000000000000000000000000000000000052
:10327C000000000000000000000000000000000042
:10328C000000000000000000000000000000000032
:10329C000000000000000000000000000000000022
:1032AC000000000000000000000000000000000012
:1032BC000000000000000000000000005354520AFF
:1032CC0000000000000000000000000000000000F2
:1032DC0000000000000000000000000000000000E2
:1032EC0000000000000000000000000000000000D2
:1032FC0000000000000000000000000000000000C2
:10330C0000000000000000000000000000000000B1
:10331C0000000000000000000000000000000000A1
:10332C000024F400D800002000000000D831000870
:10333C00F8310008B831000800000000000000005F
:10334C000000000000000000000000000000000071
:10335C000000000000000000000000000000000061
:10336C000000000000000000000000000000000051
:10337C000000000000000000000000000000000041
:08338C00000000000000000039
:04000005080021AD21
:00000001FF
